{
	"CertificateAuthority.sol": {
		"CertificateAuthority": {
			"abi": [
				{
					"inputs": [],
					"stateMutability": "nonpayable",
					"type": "constructor"
				},
				{
					"anonymous": false,
					"inputs": [
						{
							"indexed": true,
							"internalType": "bytes32",
							"name": "id",
							"type": "bytes32"
						},
						{
							"indexed": true,
							"internalType": "address",
							"name": "issuedTo",
							"type": "address"
						},
						{
							"indexed": false,
							"internalType": "bytes32",
							"name": "certHash",
							"type": "bytes32"
						},
						{
							"indexed": true,
							"internalType": "address",
							"name": "issuedBy",
							"type": "address"
						}
					],
					"name": "CertificateIssued",
					"type": "event"
				},
				{
					"anonymous": false,
					"inputs": [
						{
							"indexed": true,
							"internalType": "bytes32",
							"name": "id",
							"type": "bytes32"
						},
						{
							"indexed": true,
							"internalType": "address",
							"name": "revokedBy",
							"type": "address"
						}
					],
					"name": "CertificateRevoked",
					"type": "event"
				},
				{
					"anonymous": false,
					"inputs": [
						{
							"indexed": true,
							"internalType": "address",
							"name": "caAddress",
							"type": "address"
						}
					],
					"name": "IntermediateCAAdded",
					"type": "event"
				},
				{
					"anonymous": false,
					"inputs": [
						{
							"indexed": true,
							"internalType": "address",
							"name": "caAddress",
							"type": "address"
						}
					],
					"name": "IntermediateCARemoved",
					"type": "event"
				},
				{
					"inputs": [
						{
							"internalType": "address",
							"name": "caAddress",
							"type": "address"
						}
					],
					"name": "addIntermediateCA",
					"outputs": [],
					"stateMutability": "nonpayable",
					"type": "function"
				},
				{
					"inputs": [
						{
							"internalType": "bytes32",
							"name": "",
							"type": "bytes32"
						}
					],
					"name": "certificates",
					"outputs": [
						{
							"internalType": "bytes32",
							"name": "id",
							"type": "bytes32"
						},
						{
							"internalType": "address",
							"name": "issuedTo",
							"type": "address"
						},
						{
							"internalType": "bytes32",
							"name": "certHash",
							"type": "bytes32"
						},
						{
							"internalType": "address",
							"name": "issuedBy",
							"type": "address"
						},
						{
							"internalType": "bool",
							"name": "exists",
							"type": "bool"
						},
						{
							"internalType": "bool",
							"name": "revoked",
							"type": "bool"
						}
					],
					"stateMutability": "view",
					"type": "function"
				},
				{
					"inputs": [
						{
							"internalType": "address",
							"name": "",
							"type": "address"
						}
					],
					"name": "intermediateCAs",
					"outputs": [
						{
							"internalType": "bool",
							"name": "",
							"type": "bool"
						}
					],
					"stateMutability": "view",
					"type": "function"
				},
				{
					"inputs": [
						{
							"internalType": "bytes32",
							"name": "certId",
							"type": "bytes32"
						},
						{
							"internalType": "address",
							"name": "issuedTo",
							"type": "address"
						},
						{
							"internalType": "bytes32",
							"name": "certHash",
							"type": "bytes32"
						}
					],
					"name": "issueCertificate",
					"outputs": [],
					"stateMutability": "nonpayable",
					"type": "function"
				},
				{
					"inputs": [
						{
							"internalType": "address",
							"name": "caAddress",
							"type": "address"
						}
					],
					"name": "removeIntermediateCA",
					"outputs": [],
					"stateMutability": "nonpayable",
					"type": "function"
				},
				{
					"inputs": [
						{
							"internalType": "bytes32",
							"name": "certId",
							"type": "bytes32"
						}
					],
					"name": "revokeCertificate",
					"outputs": [],
					"stateMutability": "nonpayable",
					"type": "function"
				},
				{
					"inputs": [],
					"name": "rootCA",
					"outputs": [
						{
							"internalType": "address",
							"name": "",
							"type": "address"
						}
					],
					"stateMutability": "view",
					"type": "function"
				},
				{
					"inputs": [],
					"name": "rootCAName",
					"outputs": [
						{
							"internalType": "string",
							"name": "",
							"type": "string"
						}
					],
					"stateMutability": "view",
					"type": "function"
				}
			],
			"devdoc": {
				"kind": "dev",
				"methods": {},
				"version": 1
			},
			"evm": {
				"assembly": "    /* \"CertificateAuthority.sol\":61:3957  contract CertificateAuthority {... */\n  mstore(0x40, 0x80)\n    /* \"CertificateAuthority.sol\":98:134  string public rootCAName = \"GSMA CI\" */\n  mload(0x40)\n  dup1\n  0x40\n  add\n  0x40\n  mstore\n  dup1\n  0x07\n  dup2\n  mstore\n  0x20\n  add\n  0x47534d4120434900000000000000000000000000000000000000000000000000\n  dup2\n  mstore\n  pop\n  0x00\n  swap1\n  dup2\n  tag_1\n  swap2\n  swap1\n  tag_2\n  jump\t// in\ntag_1:\n  pop\n    /* \"CertificateAuthority.sol\":1830:1925  constructor() {... */\n  callvalue\n  dup1\n  iszero\n  tag_3\n  jumpi\n  0x00\n  dup1\n  revert\ntag_3:\n  pop\n    /* \"CertificateAuthority.sol\":1864:1874  msg.sender */\n  caller\n    /* \"CertificateAuthority.sol\":1855:1861  rootCA */\n  0x01\n  0x00\n    /* \"CertificateAuthority.sol\":1855:1874  rootCA = msg.sender */\n  0x0100\n  exp\n  dup2\n  sload\n  dup2\n  0xffffffffffffffffffffffffffffffffffffffff\n  mul\n  not\n  and\n  swap1\n  dup4\n  0xffffffffffffffffffffffffffffffffffffffff\n  and\n  mul\n  or\n  swap1\n  sstore\n  pop\n    /* \"CertificateAuthority.sol\":61:3957  contract CertificateAuthority {... */\n  jump(tag_6)\n    /* \"#utility.yul\":7:106   */\ntag_7:\n    /* \"#utility.yul\":59:65   */\n  0x00\n    /* \"#utility.yul\":93:98   */\n  dup2\n    /* \"#utility.yul\":87:99   */\n  mload\n    /* \"#utility.yul\":77:99   */\n  swap1\n  pop\n    /* \"#utility.yul\":7:106   */\n  swap2\n  swap1\n  pop\n  jump\t// out\n    /* \"#utility.yul\":112:292   */\ntag_8:\n    /* \"#utility.yul\":160:237   */\n  0x4e487b7100000000000000000000000000000000000000000000000000000000\n    /* \"#utility.yul\":157:158   */\n  0x00\n    /* \"#utility.yul\":150:238   */\n  mstore\n    /* \"#utility.yul\":257:261   */\n  0x41\n    /* \"#utility.yul\":254:255   */\n  0x04\n    /* \"#utility.yul\":247:262   */\n  mstore\n    /* \"#utility.yul\":281:285   */\n  0x24\n    /* \"#utility.yul\":278:279   */\n  0x00\n    /* \"#utility.yul\":271:286   */\n  revert\n    /* \"#utility.yul\":298:478   */\ntag_9:\n    /* \"#utility.yul\":346:423   */\n  0x4e487b7100000000000000000000000000000000000000000000000000000000\n    /* \"#utility.yul\":343:344   */\n  0x00\n    /* \"#utility.yul\":336:424   */\n  mstore\n    /* \"#utility.yul\":443:447   */\n  0x22\n    /* \"#utility.yul\":440:441   */\n  0x04\n    /* \"#utility.yul\":433:448   */\n  mstore\n    /* \"#utility.yul\":467:471   */\n  0x24\n    /* \"#utility.yul\":464:465   */\n  0x00\n    /* \"#utility.yul\":457:472   */\n  revert\n    /* \"#utility.yul\":484:804   */\ntag_10:\n    /* \"#utility.yul\":528:534   */\n  0x00\n    /* \"#utility.yul\":565:566   */\n  0x02\n    /* \"#utility.yul\":559:563   */\n  dup3\n    /* \"#utility.yul\":555:567   */\n  div\n    /* \"#utility.yul\":545:567   */\n  swap1\n  pop\n    /* \"#utility.yul\":612:613   */\n  0x01\n    /* \"#utility.yul\":606:610   */\n  dup3\n    /* \"#utility.yul\":602:614   */\n  and\n    /* \"#utility.yul\":633:651   */\n  dup1\n    /* \"#utility.yul\":623:704   */\n  tag_32\n  jumpi\n    /* \"#utility.yul\":689:693   */\n  0x7f\n    /* \"#utility.yul\":681:687   */\n  dup3\n    /* \"#utility.yul\":677:694   */\n  and\n    /* \"#utility.yul\":667:694   */\n  swap2\n  pop\n    /* \"#utility.yul\":623:704   */\ntag_32:\n    /* \"#utility.yul\":751:753   */\n  0x20\n    /* \"#utility.yul\":743:749   */\n  dup3\n    /* \"#utility.yul\":740:754   */\n  lt\n    /* \"#utility.yul\":720:738   */\n  dup2\n    /* \"#utility.yul\":717:755   */\n  sub\n    /* \"#utility.yul\":714:798   */\n  tag_33\n  jumpi\n    /* \"#utility.yul\":770:788   */\n  tag_34\n  tag_9\n  jump\t// in\ntag_34:\n    /* \"#utility.yul\":714:798   */\ntag_33:\n    /* \"#utility.yul\":535:804   */\n  pop\n    /* \"#utility.yul\":484:804   */\n  swap2\n  swap1\n  pop\n  jump\t// out\n    /* \"#utility.yul\":810:951   */\ntag_11:\n    /* \"#utility.yul\":859:863   */\n  0x00\n    /* \"#utility.yul\":882:885   */\n  dup2\n    /* \"#utility.yul\":874:885   */\n  swap1\n  pop\n    /* \"#utility.yul\":905:908   */\n  dup2\n    /* \"#utility.yul\":902:903   */\n  0x00\n    /* \"#utility.yul\":895:909   */\n  mstore\n    /* \"#utility.yul\":939:943   */\n  0x20\n    /* \"#utility.yul\":936:937   */\n  0x00\n    /* \"#utility.yul\":926:944   */\n  keccak256\n    /* \"#utility.yul\":918:944   */\n  swap1\n  pop\n    /* \"#utility.yul\":810:951   */\n  swap2\n  swap1\n  pop\n  jump\t// out\n    /* \"#utility.yul\":957:1050   */\ntag_12:\n    /* \"#utility.yul\":994:1000   */\n  0x00\n    /* \"#utility.yul\":1041:1043   */\n  0x20\n    /* \"#utility.yul\":1036:1038   */\n  0x1f\n    /* \"#utility.yul\":1029:1034   */\n  dup4\n    /* \"#utility.yul\":1025:1039   */\n  add\n    /* \"#utility.yul\":1021:1044   */\n  div\n    /* \"#utility.yul\":1011:1044   */\n  swap1\n  pop\n    /* \"#utility.yul\":957:1050   */\n  swap2\n  swap1\n  pop\n  jump\t// out\n    /* \"#utility.yul\":1056:1163   */\ntag_13:\n    /* \"#utility.yul\":1100:1108   */\n  0x00\n    /* \"#utility.yul\":1150:1155   */\n  dup3\n    /* \"#utility.yul\":1144:1148   */\n  dup3\n    /* \"#utility.yul\":1140:1156   */\n  shl\n    /* \"#utility.yul\":1119:1156   */\n  swap1\n  pop\n    /* \"#utility.yul\":1056:1163   */\n  swap3\n  swap2\n  pop\n  pop\n  jump\t// out\n    /* \"#utility.yul\":1169:1562   */\ntag_14:\n    /* \"#utility.yul\":1238:1244   */\n  0x00\n    /* \"#utility.yul\":1288:1289   */\n  0x08\n    /* \"#utility.yul\":1276:1286   */\n  dup4\n    /* \"#utility.yul\":1272:1290   */\n  mul\n    /* \"#utility.yul\":1311:1408   */\n  tag_39\n    /* \"#utility.yul\":1341:1407   */\n  0xffffffffffffffffffffffffffffffffffffffffffffffffffffffffffffffff\n    /* \"#utility.yul\":1330:1339   */\n  dup3\n    /* \"#utility.yul\":1311:1408   */\n  tag_13\n  jump\t// in\ntag_39:\n    /* \"#utility.yul\":1429:1468   */\n  tag_40\n    /* \"#utility.yul\":1459:1467   */\n  dup7\n    /* \"#utility.yul\":1448:1457   */\n  dup4\n    /* \"#utility.yul\":1429:1468   */\n  tag_13\n  jump\t// in\ntag_40:\n    /* \"#utility.yul\":1417:1468   */\n  swap6\n  pop\n    /* \"#utility.yul\":1501:1505   */\n  dup1\n    /* \"#utility.yul\":1497:1506   */\n  not\n    /* \"#utility.yul\":1490:1495   */\n  dup5\n    /* \"#utility.yul\":1486:1507   */\n  and\n    /* \"#utility.yul\":1477:1507   */\n  swap4\n  pop\n    /* \"#utility.yul\":1550:1554   */\n  dup1\n    /* \"#utility.yul\":1540:1548   */\n  dup7\n    /* \"#utility.yul\":1536:1555   */\n  and\n    /* \"#utility.yul\":1529:1534   */\n  dup5\n    /* \"#utility.yul\":1526:1556   */\n  or\n    /* \"#utility.yul\":1516:1556   */\n  swap3\n  pop\n    /* \"#utility.yul\":1245:1562   */\n  pop\n  pop\n    /* \"#utility.yul\":1169:1562   */\n  swap4\n  swap3\n  pop\n  pop\n  pop\n  jump\t// out\n    /* \"#utility.yul\":1568:1645   */\ntag_15:\n    /* \"#utility.yul\":1605:1612   */\n  0x00\n    /* \"#utility.yul\":1634:1639   */\n  dup2\n    /* \"#utility.yul\":1623:1639   */\n  swap1\n  pop\n    /* \"#utility.yul\":1568:1645   */\n  swap2\n  swap1\n  pop\n  jump\t// out\n    /* \"#utility.yul\":1651:1711   */\ntag_16:\n    /* \"#utility.yul\":1679:1682   */\n  0x00\n    /* \"#utility.yul\":1700:1705   */\n  dup2\n    /* \"#utility.yul\":1693:1705   */\n  swap1\n  pop\n    /* \"#utility.yul\":1651:1711   */\n  swap2\n  swap1\n  pop\n  jump\t// out\n    /* \"#utility.yul\":1717:1859   */\ntag_17:\n    /* \"#utility.yul\":1767:1776   */\n  0x00\n    /* \"#utility.yul\":1800:1853   */\n  tag_44\n    /* \"#utility.yul\":1818:1852   */\n  tag_45\n    /* \"#utility.yul\":1827:1851   */\n  tag_46\n    /* \"#utility.yul\":1845:1850   */\n  dup5\n    /* \"#utility.yul\":1827:1851   */\n  tag_15\n  jump\t// in\ntag_46:\n    /* \"#utility.yul\":1818:1852   */\n  tag_16\n  jump\t// in\ntag_45:\n    /* \"#utility.yul\":1800:1853   */\n  tag_15\n  jump\t// in\ntag_44:\n    /* \"#utility.yul\":1787:1853   */\n  swap1\n  pop\n    /* \"#utility.yul\":1717:1859   */\n  swap2\n  swap1\n  pop\n  jump\t// out\n    /* \"#utility.yul\":1865:1940   */\ntag_18:\n    /* \"#utility.yul\":1908:1911   */\n  0x00\n    /* \"#utility.yul\":1929:1934   */\n  dup2\n    /* \"#utility.yul\":1922:1934   */\n  swap1\n  pop\n    /* \"#utility.yul\":1865:1940   */\n  swap2\n  swap1\n  pop\n  jump\t// out\n    /* \"#utility.yul\":1946:2215   */\ntag_19:\n    /* \"#utility.yul\":2056:2095   */\n  tag_49\n    /* \"#utility.yul\":2087:2094   */\n  dup4\n    /* \"#utility.yul\":2056:2095   */\n  tag_17\n  jump\t// in\ntag_49:\n    /* \"#utility.yul\":2117:2208   */\n  tag_50\n    /* \"#utility.yul\":2166:2207   */\n  tag_51\n    /* \"#utility.yul\":2190:2206   */\n  dup3\n    /* \"#utility.yul\":2166:2207   */\n  tag_18\n  jump\t// in\ntag_51:\n    /* \"#utility.yul\":2158:2164   */\n  dup5\n    /* \"#utility.yul\":2151:2155   */\n  dup5\n    /* \"#utility.yul\":2145:2156   */\n  sload\n    /* \"#utility.yul\":2117:2208   */\n  tag_14\n  jump\t// in\ntag_50:\n    /* \"#utility.yul\":2111:2115   */\n  dup3\n    /* \"#utility.yul\":2104:2209   */\n  sstore\n    /* \"#utility.yul\":2022:2215   */\n  pop\n    /* \"#utility.yul\":1946:2215   */\n  pop\n  pop\n  pop\n  jump\t// out\n    /* \"#utility.yul\":2221:2294   */\ntag_20:\n    /* \"#utility.yul\":2266:2269   */\n  0x00\n    /* \"#utility.yul\":2221:2294   */\n  swap1\n  jump\t// out\n    /* \"#utility.yul\":2300:2489   */\ntag_21:\n    /* \"#utility.yul\":2377:2409   */\n  tag_54\n  tag_20\n  jump\t// in\ntag_54:\n    /* \"#utility.yul\":2418:2483   */\n  tag_55\n    /* \"#utility.yul\":2476:2482   */\n  dup2\n    /* \"#utility.yul\":2468:2474   */\n  dup5\n    /* \"#utility.yul\":2462:2466   */\n  dup5\n    /* \"#utility.yul\":2418:2483   */\n  tag_19\n  jump\t// in\ntag_55:\n    /* \"#utility.yul\":2353:2489   */\n  pop\n    /* \"#utility.yul\":2300:2489   */\n  pop\n  pop\n  jump\t// out\n    /* \"#utility.yul\":2495:2681   */\ntag_22:\n    /* \"#utility.yul\":2555:2675   */\ntag_57:\n    /* \"#utility.yul\":2572:2575   */\n  dup2\n    /* \"#utility.yul\":2565:2570   */\n  dup2\n    /* \"#utility.yul\":2562:2576   */\n  lt\n    /* \"#utility.yul\":2555:2675   */\n  iszero\n  tag_59\n  jumpi\n    /* \"#utility.yul\":2626:2665   */\n  tag_60\n    /* \"#utility.yul\":2663:2664   */\n  0x00\n    /* \"#utility.yul\":2656:2661   */\n  dup3\n    /* \"#utility.yul\":2626:2665   */\n  tag_21\n  jump\t// in\ntag_60:\n    /* \"#utility.yul\":2599:2600   */\n  0x01\n    /* \"#utility.yul\":2592:2597   */\n  dup2\n    /* \"#utility.yul\":2588:2601   */\n  add\n    /* \"#utility.yul\":2579:2601   */\n  swap1\n  pop\n    /* \"#utility.yul\":2555:2675   */\n  jump(tag_57)\ntag_59:\n    /* \"#utility.yul\":2495:2681   */\n  pop\n  pop\n  jump\t// out\n    /* \"#utility.yul\":2687:3230   */\ntag_23:\n    /* \"#utility.yul\":2788:2790   */\n  0x1f\n    /* \"#utility.yul\":2783:2786   */\n  dup3\n    /* \"#utility.yul\":2780:2791   */\n  gt\n    /* \"#utility.yul\":2777:3223   */\n  iszero\n  tag_62\n  jumpi\n    /* \"#utility.yul\":2822:2860   */\n  tag_63\n    /* \"#utility.yul\":2854:2859   */\n  dup2\n    /* \"#utility.yul\":2822:2860   */\n  tag_11\n  jump\t// in\ntag_63:\n    /* \"#utility.yul\":2906:2935   */\n  tag_64\n    /* \"#utility.yul\":2924:2934   */\n  dup5\n    /* \"#utility.yul\":2906:2935   */\n  tag_12\n  jump\t// in\ntag_64:\n    /* \"#utility.yul\":2896:2904   */\n  dup2\n    /* \"#utility.yul\":2892:2936   */\n  add\n    /* \"#utility.yul\":3089:3091   */\n  0x20\n    /* \"#utility.yul\":3077:3087   */\n  dup6\n    /* \"#utility.yul\":3074:3092   */\n  lt\n    /* \"#utility.yul\":3071:3120   */\n  iszero\n  tag_65\n  jumpi\n    /* \"#utility.yul\":3110:3118   */\n  dup2\n    /* \"#utility.yul\":3095:3118   */\n  swap1\n  pop\n    /* \"#utility.yul\":3071:3120   */\ntag_65:\n    /* \"#utility.yul\":3133:3213   */\n  tag_66\n    /* \"#utility.yul\":3189:3211   */\n  tag_67\n    /* \"#utility.yul\":3207:3210   */\n  dup6\n    /* \"#utility.yul\":3189:3211   */\n  tag_12\n  jump\t// in\ntag_67:\n    /* \"#utility.yul\":3179:3187   */\n  dup4\n    /* \"#utility.yul\":3175:3212   */\n  add\n    /* \"#utility.yul\":3162:3173   */\n  dup3\n    /* \"#utility.yul\":3133:3213   */\n  tag_22\n  jump\t// in\ntag_66:\n    /* \"#utility.yul\":2792:3223   */\n  pop\n  pop\n    /* \"#utility.yul\":2777:3223   */\ntag_62:\n    /* \"#utility.yul\":2687:3230   */\n  pop\n  pop\n  pop\n  jump\t// out\n    /* \"#utility.yul\":3236:3353   */\ntag_24:\n    /* \"#utility.yul\":3290:3298   */\n  0x00\n    /* \"#utility.yul\":3340:3345   */\n  dup3\n    /* \"#utility.yul\":3334:3338   */\n  dup3\n    /* \"#utility.yul\":3330:3346   */\n  shr\n    /* \"#utility.yul\":3309:3346   */\n  swap1\n  pop\n    /* \"#utility.yul\":3236:3353   */\n  swap3\n  swap2\n  pop\n  pop\n  jump\t// out\n    /* \"#utility.yul\":3359:3528   */\ntag_25:\n    /* \"#utility.yul\":3403:3409   */\n  0x00\n    /* \"#utility.yul\":3436:3487   */\n  tag_70\n    /* \"#utility.yul\":3484:3485   */\n  0x00\n    /* \"#utility.yul\":3480:3486   */\n  not\n    /* \"#utility.yul\":3472:3477   */\n  dup5\n    /* \"#utility.yul\":3469:3470   */\n  0x08\n    /* \"#utility.yul\":3465:3478   */\n  mul\n    /* \"#utility.yul\":3436:3487   */\n  tag_24\n  jump\t// in\ntag_70:\n    /* \"#utility.yul\":3432:3488   */\n  not\n    /* \"#utility.yul\":3517:3521   */\n  dup1\n    /* \"#utility.yul\":3511:3515   */\n  dup4\n    /* \"#utility.yul\":3507:3522   */\n  and\n    /* \"#utility.yul\":3497:3522   */\n  swap2\n  pop\n    /* \"#utility.yul\":3410:3528   */\n  pop\n    /* \"#utility.yul\":3359:3528   */\n  swap3\n  swap2\n  pop\n  pop\n  jump\t// out\n    /* \"#utility.yul\":3533:3828   */\ntag_26:\n    /* \"#utility.yul\":3609:3613   */\n  0x00\n    /* \"#utility.yul\":3755:3784   */\n  tag_72\n    /* \"#utility.yul\":3780:3783   */\n  dup4\n    /* \"#utility.yul\":3774:3778   */\n  dup4\n    /* \"#utility.yul\":3755:3784   */\n  tag_25\n  jump\t// in\ntag_72:\n    /* \"#utility.yul\":3747:3784   */\n  swap2\n  pop\n    /* \"#utility.yul\":3817:3820   */\n  dup3\n    /* \"#utility.yul\":3814:3815   */\n  0x02\n    /* \"#utility.yul\":3810:3821   */\n  mul\n    /* \"#utility.yul\":3804:3808   */\n  dup3\n    /* \"#utility.yul\":3801:3822   */\n  or\n    /* \"#utility.yul\":3793:3822   */\n  swap1\n  pop\n    /* \"#utility.yul\":3533:3828   */\n  swap3\n  swap2\n  pop\n  pop\n  jump\t// out\n    /* \"#utility.yul\":3833:5228   */\ntag_2:\n    /* \"#utility.yul\":3950:3987   */\n  tag_74\n    /* \"#utility.yul\":3983:3986   */\n  dup3\n    /* \"#utility.yul\":3950:3987   */\n  tag_7\n  jump\t// in\ntag_74:\n    /* \"#utility.yul\":4052:4070   */\n  0xffffffffffffffff\n    /* \"#utility.yul\":4044:4050   */\n  dup2\n    /* \"#utility.yul\":4041:4071   */\n  gt\n    /* \"#utility.yul\":4038:4094   */\n  iszero\n  tag_75\n  jumpi\n    /* \"#utility.yul\":4074:4092   */\n  tag_76\n  tag_8\n  jump\t// in\ntag_76:\n    /* \"#utility.yul\":4038:4094   */\ntag_75:\n    /* \"#utility.yul\":4118:4156   */\n  tag_77\n    /* \"#utility.yul\":4150:4154   */\n  dup3\n    /* \"#utility.yul\":4144:4155   */\n  sload\n    /* \"#utility.yul\":4118:4156   */\n  tag_10\n  jump\t// in\ntag_77:\n    /* \"#utility.yul\":4203:4270   */\n  tag_78\n    /* \"#utility.yul\":4263:4269   */\n  dup3\n    /* \"#utility.yul\":4255:4261   */\n  dup3\n    /* \"#utility.yul\":4249:4253   */\n  dup6\n    /* \"#utility.yul\":4203:4270   */\n  tag_23\n  jump\t// in\ntag_78:\n    /* \"#utility.yul\":4297:4298   */\n  0x00\n    /* \"#utility.yul\":4321:4325   */\n  0x20\n    /* \"#utility.yul\":4308:4325   */\n  swap1\n  pop\n    /* \"#utility.yul\":4353:4355   */\n  0x1f\n    /* \"#utility.yul\":4345:4351   */\n  dup4\n    /* \"#utility.yul\":4342:4356   */\n  gt\n    /* \"#utility.yul\":4370:4371   */\n  0x01\n    /* \"#utility.yul\":4365:4983   */\n  dup2\n  eq\n  tag_80\n  jumpi\n    /* \"#utility.yul\":5027:5028   */\n  0x00\n    /* \"#utility.yul\":5044:5050   */\n  dup5\n    /* \"#utility.yul\":5041:5118   */\n  iszero\n  tag_81\n  jumpi\n    /* \"#utility.yul\":5093:5102   */\n  dup3\n    /* \"#utility.yul\":5088:5091   */\n  dup8\n    /* \"#utility.yul\":5084:5103   */\n  add\n    /* \"#utility.yul\":5078:5104   */\n  mload\n    /* \"#utility.yul\":5069:5104   */\n  swap1\n  pop\n    /* \"#utility.yul\":5041:5118   */\ntag_81:\n    /* \"#utility.yul\":5144:5211   */\n  tag_82\n    /* \"#utility.yul\":5204:5210   */\n  dup6\n    /* \"#utility.yul\":5197:5202   */\n  dup3\n    /* \"#utility.yul\":5144:5211   */\n  tag_26\n  jump\t// in\ntag_82:\n    /* \"#utility.yul\":5138:5142   */\n  dup7\n    /* \"#utility.yul\":5131:5212   */\n  sstore\n    /* \"#utility.yul\":5000:5222   */\n  pop\n    /* \"#utility.yul\":4335:5222   */\n  jump(tag_79)\n    /* \"#utility.yul\":4365:4983   */\ntag_80:\n    /* \"#utility.yul\":4417:4421   */\n  0x1f\n    /* \"#utility.yul\":4413:4422   */\n  not\n    /* \"#utility.yul\":4405:4411   */\n  dup5\n    /* \"#utility.yul\":4401:4423   */\n  and\n    /* \"#utility.yul\":4451:4488   */\n  tag_83\n    /* \"#utility.yul\":4483:4487   */\n  dup7\n    /* \"#utility.yul\":4451:4488   */\n  tag_11\n  jump\t// in\ntag_83:\n    /* \"#utility.yul\":4510:4511   */\n  0x00\n    /* \"#utility.yul\":4524:4732   */\ntag_84:\n    /* \"#utility.yul\":4538:4545   */\n  dup3\n    /* \"#utility.yul\":4535:4536   */\n  dup2\n    /* \"#utility.yul\":4532:4546   */\n  lt\n    /* \"#utility.yul\":4524:4732   */\n  iszero\n  tag_86\n  jumpi\n    /* \"#utility.yul\":4617:4626   */\n  dup5\n    /* \"#utility.yul\":4612:4615   */\n  dup10\n    /* \"#utility.yul\":4608:4627   */\n  add\n    /* \"#utility.yul\":4602:4628   */\n  mload\n    /* \"#utility.yul\":4594:4600   */\n  dup3\n    /* \"#utility.yul\":4587:4629   */\n  sstore\n    /* \"#utility.yul\":4668:4669   */\n  0x01\n    /* \"#utility.yul\":4660:4666   */\n  dup3\n    /* \"#utility.yul\":4656:4670   */\n  add\n    /* \"#utility.yul\":4646:4670   */\n  swap2\n  pop\n    /* \"#utility.yul\":4715:4717   */\n  0x20\n    /* \"#utility.yul\":4704:4713   */\n  dup6\n    /* \"#utility.yul\":4700:4718   */\n  add\n    /* \"#utility.yul\":4687:4718   */\n  swap5\n  pop\n    /* \"#utility.yul\":4561:4565   */\n  0x20\n    /* \"#utility.yul\":4558:4559   */\n  dup2\n    /* \"#utility.yul\":4554:4566   */\n  add\n    /* \"#utility.yul\":4549:4566   */\n  swap1\n  pop\n    /* \"#utility.yul\":4524:4732   */\n  jump(tag_84)\ntag_86:\n    /* \"#utility.yul\":4760:4766   */\n  dup7\n    /* \"#utility.yul\":4751:4758   */\n  dup4\n    /* \"#utility.yul\":4748:4767   */\n  lt\n    /* \"#utility.yul\":4745:4924   */\n  iszero\n  tag_87\n  jumpi\n    /* \"#utility.yul\":4818:4827   */\n  dup5\n    /* \"#utility.yul\":4813:4816   */\n  dup10\n    /* \"#utility.yul\":4809:4828   */\n  add\n    /* \"#utility.yul\":4803:4829   */\n  mload\n    /* \"#utility.yul\":4861:4909   */\n  tag_88\n    /* \"#utility.yul\":4903:4907   */\n  0x1f\n    /* \"#utility.yul\":4895:4901   */\n  dup10\n    /* \"#utility.yul\":4891:4908   */\n  and\n    /* \"#utility.yul\":4880:4889   */\n  dup3\n    /* \"#utility.yul\":4861:4909   */\n  tag_25\n  jump\t// in\ntag_88:\n    /* \"#utility.yul\":4853:4859   */\n  dup4\n    /* \"#utility.yul\":4846:4910   */\n  sstore\n    /* \"#utility.yul\":4768:4924   */\n  pop\n    /* \"#utility.yul\":4745:4924   */\ntag_87:\n    /* \"#utility.yul\":4970:4971   */\n  0x01\n    /* \"#utility.yul\":4966:4967   */\n  0x02\n    /* \"#utility.yul\":4958:4964   */\n  dup9\n    /* \"#utility.yul\":4954:4968   */\n  mul\n    /* \"#utility.yul\":4950:4972   */\n  add\n    /* \"#utility.yul\":4944:4948   */\n  dup9\n    /* \"#utility.yul\":4937:4973   */\n  sstore\n    /* \"#utility.yul\":4372:4983   */\n  pop\n  pop\n  pop\n    /* \"#utility.yul\":4335:5222   */\ntag_79:\n  pop\n    /* \"#utility.yul\":3925:5228   */\n  pop\n  pop\n  pop\n    /* \"#utility.yul\":3833:5228   */\n  pop\n  pop\n  jump\t// out\n    /* \"CertificateAuthority.sol\":61:3957  contract CertificateAuthority {... */\ntag_6:\n  dataSize(sub_0)\n  dup1\n  dataOffset(sub_0)\n  0x00\n  codecopy\n  0x00\n  return\nstop\n\nsub_0: assembly {\n        /* \"CertificateAuthority.sol\":61:3957  contract CertificateAuthority {... */\n      mstore(0x40, 0x80)\n      callvalue\n      dup1\n      iszero\n      tag_1\n      jumpi\n      0x00\n      dup1\n      revert\n    tag_1:\n      pop\n      jumpi(tag_2, lt(calldatasize, 0x04))\n      shr(0xe0, calldataload(0x00))\n      dup1\n      0x8dddddd6\n      gt\n      tag_11\n      jumpi\n      dup1\n      0x8dddddd6\n      eq\n      tag_7\n      jumpi\n      dup1\n      0xaed681ed\n      eq\n      tag_8\n      jumpi\n      dup1\n      0xc6cbc52a\n      eq\n      tag_9\n      jumpi\n      dup1\n      0xf4d3cbfc\n      eq\n      tag_10\n      jumpi\n      jump(tag_2)\n    tag_11:\n      dup1\n      0x176b95d6\n      eq\n      tag_3\n      jumpi\n      dup1\n      0x3653759f\n      eq\n      tag_4\n      jumpi\n      dup1\n      0x585fc0d2\n      eq\n      tag_5\n      jumpi\n      dup1\n      0x742f0688\n      eq\n      tag_6\n      jumpi\n    tag_2:\n      0x00\n      dup1\n      revert\n        /* \"CertificateAuthority.sol\":3724:3954  function removeIntermediateCA(address caAddress) public onlyRootCA {... */\n    tag_3:\n      tag_12\n      0x04\n      dup1\n      calldatasize\n      sub\n      dup2\n      add\n      swap1\n      tag_13\n      swap2\n      swap1\n      tag_14\n      jump\t// in\n    tag_13:\n      tag_15\n      jump\t// in\n    tag_12:\n      stop\n        /* \"CertificateAuthority.sol\":98:134  string public rootCAName = \"GSMA CI\" */\n    tag_4:\n      tag_16\n      tag_17\n      jump\t// in\n    tag_16:\n      mload(0x40)\n      tag_18\n      swap2\n      swap1\n      tag_19\n      jump\t// in\n    tag_18:\n      mload(0x40)\n      dup1\n      swap2\n      sub\n      swap1\n      return\n        /* \"CertificateAuthority.sol\":296:343  mapping(address => bool) public intermediateCAs */\n    tag_5:\n      tag_20\n      0x04\n      dup1\n      calldatasize\n      sub\n      dup2\n      add\n      swap1\n      tag_21\n      swap2\n      swap1\n      tag_14\n      jump\t// in\n    tag_21:\n      tag_22\n      jump\t// in\n    tag_20:\n      mload(0x40)\n      tag_23\n      swap2\n      swap1\n      tag_24\n      jump\t// in\n    tag_23:\n      mload(0x40)\n      dup1\n      swap2\n      sub\n      swap1\n      return\n        /* \"CertificateAuthority.sol\":860:911  mapping(bytes32 => Certificate) public certificates */\n    tag_6:\n      tag_25\n      0x04\n      dup1\n      calldatasize\n      sub\n      dup2\n      add\n      swap1\n      tag_26\n      swap2\n      swap1\n      tag_27\n      jump\t// in\n    tag_26:\n      tag_28\n      jump\t// in\n    tag_25:\n      mload(0x40)\n      tag_29\n      swap7\n      swap6\n      swap5\n      swap4\n      swap3\n      swap2\n      swap1\n      tag_30\n      jump\t// in\n    tag_29:\n      mload(0x40)\n      dup1\n      swap2\n      sub\n      swap1\n      return\n        /* \"CertificateAuthority.sol\":3431:3655  function addIntermediateCA(address caAddress) public onlyRootCA {... */\n    tag_7:\n      tag_31\n      0x04\n      dup1\n      calldatasize\n      sub\n      dup2\n      add\n      swap1\n      tag_32\n      swap2\n      swap1\n      tag_14\n      jump\t// in\n    tag_32:\n      tag_33\n      jump\t// in\n    tag_31:\n      stop\n        /* \"CertificateAuthority.sol\":170:191  address public rootCA */\n    tag_8:\n      tag_34\n      tag_35\n      jump\t// in\n    tag_34:\n      mload(0x40)\n      tag_36\n      swap2\n      swap1\n      tag_37\n      jump\t// in\n    tag_36:\n      mload(0x40)\n      dup1\n      swap2\n      sub\n      swap1\n      return\n        /* \"CertificateAuthority.sol\":3016:3365  function revokeCertificate(bytes32 certId) public {... */\n    tag_9:\n      tag_38\n      0x04\n      dup1\n      calldatasize\n      sub\n      dup2\n      add\n      swap1\n      tag_39\n      swap2\n      swap1\n      tag_27\n      jump\t// in\n    tag_39:\n      tag_40\n      jump\t// in\n    tag_38:\n      stop\n        /* \"CertificateAuthority.sol\":2024:2979  function issueCertificate(... */\n    tag_10:\n      tag_41\n      0x04\n      dup1\n      calldatasize\n      sub\n      dup2\n      add\n      swap1\n      tag_42\n      swap2\n      swap1\n      tag_43\n      jump\t// in\n    tag_42:\n      tag_44\n      jump\t// in\n    tag_41:\n      stop\n        /* \"CertificateAuthority.sol\":3724:3954  function removeIntermediateCA(address caAddress) public onlyRootCA {... */\n    tag_15:\n        /* \"CertificateAuthority.sol\":1402:1408  rootCA */\n      0x01\n      0x00\n      swap1\n      sload\n      swap1\n      0x0100\n      exp\n      swap1\n      div\n      0xffffffffffffffffffffffffffffffffffffffff\n      and\n        /* \"CertificateAuthority.sol\":1388:1408  msg.sender == rootCA */\n      0xffffffffffffffffffffffffffffffffffffffff\n      and\n        /* \"CertificateAuthority.sol\":1388:1398  msg.sender */\n      caller\n        /* \"CertificateAuthority.sol\":1388:1408  msg.sender == rootCA */\n      0xffffffffffffffffffffffffffffffffffffffff\n      and\n      eq\n        /* \"CertificateAuthority.sol\":1380:1449  require(msg.sender == rootCA, \"Only GSMA CI can perform this action\") */\n      tag_46\n      jumpi\n      mload(0x40)\n      0x08c379a000000000000000000000000000000000000000000000000000000000\n      dup2\n      mstore\n      0x04\n      add\n      tag_47\n      swap1\n      tag_48\n      jump\t// in\n    tag_47:\n      mload(0x40)\n      dup1\n      swap2\n      sub\n      swap1\n      revert\n    tag_46:\n        /* \"CertificateAuthority.sol\":3831:3832  0 */\n      0x00\n        /* \"CertificateAuthority.sol\":3810:3833  caAddress != address(0) */\n      0xffffffffffffffffffffffffffffffffffffffff\n      and\n        /* \"CertificateAuthority.sol\":3810:3819  caAddress */\n      dup2\n        /* \"CertificateAuthority.sol\":3810:3833  caAddress != address(0) */\n      0xffffffffffffffffffffffffffffffffffffffff\n      and\n      sub\n        /* \"CertificateAuthority.sol\":3802:3853  require(caAddress != address(0), \"Invalid address\") */\n      tag_50\n      jumpi\n      mload(0x40)\n      0x08c379a000000000000000000000000000000000000000000000000000000000\n      dup2\n      mstore\n      0x04\n      add\n      tag_51\n      swap1\n      tag_52\n      jump\t// in\n    tag_51:\n      mload(0x40)\n      dup1\n      swap2\n      sub\n      swap1\n      revert\n    tag_50:\n        /* \"CertificateAuthority.sol\":3893:3898  false */\n      0x00\n        /* \"CertificateAuthority.sol\":3864:3879  intermediateCAs */\n      0x02\n        /* \"CertificateAuthority.sol\":3864:3890  intermediateCAs[caAddress] */\n      0x00\n        /* \"CertificateAuthority.sol\":3880:3889  caAddress */\n      dup4\n        /* \"CertificateAuthority.sol\":3864:3890  intermediateCAs[caAddress] */\n      0xffffffffffffffffffffffffffffffffffffffff\n      and\n      0xffffffffffffffffffffffffffffffffffffffff\n      and\n      dup2\n      mstore\n      0x20\n      add\n      swap1\n      dup2\n      mstore\n      0x20\n      add\n      0x00\n      keccak256\n      0x00\n        /* \"CertificateAuthority.sol\":3864:3898  intermediateCAs[caAddress] = false */\n      0x0100\n      exp\n      dup2\n      sload\n      dup2\n      0xff\n      mul\n      not\n      and\n      swap1\n      dup4\n      iszero\n      iszero\n      mul\n      or\n      swap1\n      sstore\n      pop\n        /* \"CertificateAuthority.sol\":3936:3945  caAddress */\n      dup1\n        /* \"CertificateAuthority.sol\":3914:3946  IntermediateCARemoved(caAddress) */\n      0xffffffffffffffffffffffffffffffffffffffff\n      and\n      0xadf2af09325cf4c8ba758206fd1204bdd029904cef4e2dfb754507e606395522\n      mload(0x40)\n      mload(0x40)\n      dup1\n      swap2\n      sub\n      swap1\n      log2\n        /* \"CertificateAuthority.sol\":3724:3954  function removeIntermediateCA(address caAddress) public onlyRootCA {... */\n      pop\n      jump\t// out\n        /* \"CertificateAuthority.sol\":98:134  string public rootCAName = \"GSMA CI\" */\n    tag_17:\n      0x00\n      dup1\n      sload\n      tag_53\n      swap1\n      tag_54\n      jump\t// in\n    tag_53:\n      dup1\n      0x1f\n      add\n      0x20\n      dup1\n      swap2\n      div\n      mul\n      0x20\n      add\n      mload(0x40)\n      swap1\n      dup2\n      add\n      0x40\n      mstore\n      dup1\n      swap3\n      swap2\n      swap1\n      dup2\n      dup2\n      mstore\n      0x20\n      add\n      dup3\n      dup1\n      sload\n      tag_55\n      swap1\n      tag_54\n      jump\t// in\n    tag_55:\n      dup1\n      iszero\n      tag_56\n      jumpi\n      dup1\n      0x1f\n      lt\n      tag_57\n      jumpi\n      0x0100\n      dup1\n      dup4\n      sload\n      div\n      mul\n      dup4\n      mstore\n      swap2\n      0x20\n      add\n      swap2\n      jump(tag_56)\n    tag_57:\n      dup3\n      add\n      swap2\n      swap1\n      0x00\n      mstore\n      keccak256(0x00, 0x20)\n      swap1\n    tag_58:\n      dup2\n      sload\n      dup2\n      mstore\n      swap1\n      0x01\n      add\n      swap1\n      0x20\n      add\n      dup1\n      dup4\n      gt\n      tag_58\n      jumpi\n      dup3\n      swap1\n      sub\n      0x1f\n      and\n      dup3\n      add\n      swap2\n    tag_56:\n      pop\n      pop\n      pop\n      pop\n      pop\n      dup2\n      jump\t// out\n        /* \"CertificateAuthority.sol\":296:343  mapping(address => bool) public intermediateCAs */\n    tag_22:\n      mstore(0x20, 0x02)\n      dup1\n      0x00\n      mstore\n      keccak256(0x00, 0x40)\n      0x00\n      swap2\n      pop\n      sload\n      swap1\n      0x0100\n      exp\n      swap1\n      div\n      0xff\n      and\n      dup2\n      jump\t// out\n        /* \"CertificateAuthority.sol\":860:911  mapping(bytes32 => Certificate) public certificates */\n    tag_28:\n      mstore(0x20, 0x03)\n      dup1\n      0x00\n      mstore\n      keccak256(0x00, 0x40)\n      0x00\n      swap2\n      pop\n      swap1\n      pop\n      dup1\n      0x00\n      add\n      sload\n      swap1\n      dup1\n      0x01\n      add\n      0x00\n      swap1\n      sload\n      swap1\n      0x0100\n      exp\n      swap1\n      div\n      0xffffffffffffffffffffffffffffffffffffffff\n      and\n      swap1\n      dup1\n      0x02\n      add\n      sload\n      swap1\n      dup1\n      0x03\n      add\n      0x00\n      swap1\n      sload\n      swap1\n      0x0100\n      exp\n      swap1\n      div\n      0xffffffffffffffffffffffffffffffffffffffff\n      and\n      swap1\n      dup1\n      0x03\n      add\n      0x14\n      swap1\n      sload\n      swap1\n      0x0100\n      exp\n      swap1\n      div\n      0xff\n      and\n      swap1\n      dup1\n      0x03\n      add\n      0x15\n      swap1\n      sload\n      swap1\n      0x0100\n      exp\n      swap1\n      div\n      0xff\n      and\n      swap1\n      pop\n      dup7\n      jump\t// out\n        /* \"CertificateAuthority.sol\":3431:3655  function addIntermediateCA(address caAddress) public onlyRootCA {... */\n    tag_33:\n        /* \"CertificateAuthority.sol\":1402:1408  rootCA */\n      0x01\n      0x00\n      swap1\n      sload\n      swap1\n      0x0100\n      exp\n      swap1\n      div\n      0xffffffffffffffffffffffffffffffffffffffff\n      and\n        /* \"CertificateAuthority.sol\":1388:1408  msg.sender == rootCA */\n      0xffffffffffffffffffffffffffffffffffffffff\n      and\n        /* \"CertificateAuthority.sol\":1388:1398  msg.sender */\n      caller\n        /* \"CertificateAuthority.sol\":1388:1408  msg.sender == rootCA */\n      0xffffffffffffffffffffffffffffffffffffffff\n      and\n      eq\n        /* \"CertificateAuthority.sol\":1380:1449  require(msg.sender == rootCA, \"Only GSMA CI can perform this action\") */\n      tag_60\n      jumpi\n      mload(0x40)\n      0x08c379a000000000000000000000000000000000000000000000000000000000\n      dup2\n      mstore\n      0x04\n      add\n      tag_61\n      swap1\n      tag_48\n      jump\t// in\n    tag_61:\n      mload(0x40)\n      dup1\n      swap2\n      sub\n      swap1\n      revert\n    tag_60:\n        /* \"CertificateAuthority.sol\":3535:3536  0 */\n      0x00\n        /* \"CertificateAuthority.sol\":3514:3537  caAddress != address(0) */\n      0xffffffffffffffffffffffffffffffffffffffff\n      and\n        /* \"CertificateAuthority.sol\":3514:3523  caAddress */\n      dup2\n        /* \"CertificateAuthority.sol\":3514:3537  caAddress != address(0) */\n      0xffffffffffffffffffffffffffffffffffffffff\n      and\n      sub\n        /* \"CertificateAuthority.sol\":3506:3557  require(caAddress != address(0), \"Invalid address\") */\n      tag_63\n      jumpi\n      mload(0x40)\n      0x08c379a000000000000000000000000000000000000000000000000000000000\n      dup2\n      mstore\n      0x04\n      add\n      tag_64\n      swap1\n      tag_52\n      jump\t// in\n    tag_64:\n      mload(0x40)\n      dup1\n      swap2\n      sub\n      swap1\n      revert\n    tag_63:\n        /* \"CertificateAuthority.sol\":3597:3601  true */\n      0x01\n        /* \"CertificateAuthority.sol\":3568:3583  intermediateCAs */\n      0x02\n        /* \"CertificateAuthority.sol\":3568:3594  intermediateCAs[caAddress] */\n      0x00\n        /* \"CertificateAuthority.sol\":3584:3593  caAddress */\n      dup4\n        /* \"CertificateAuthority.sol\":3568:3594  intermediateCAs[caAddress] */\n      0xffffffffffffffffffffffffffffffffffffffff\n      and\n      0xffffffffffffffffffffffffffffffffffffffff\n      and\n      dup2\n      mstore\n      0x20\n      add\n      swap1\n      dup2\n      mstore\n      0x20\n      add\n      0x00\n      keccak256\n      0x00\n        /* \"CertificateAuthority.sol\":3568:3601  intermediateCAs[caAddress] = true */\n      0x0100\n      exp\n      dup2\n      sload\n      dup2\n      0xff\n      mul\n      not\n      and\n      swap1\n      dup4\n      iszero\n      iszero\n      mul\n      or\n      swap1\n      sstore\n      pop\n        /* \"CertificateAuthority.sol\":3637:3646  caAddress */\n      dup1\n        /* \"CertificateAuthority.sol\":3617:3647  IntermediateCAAdded(caAddress) */\n      0xffffffffffffffffffffffffffffffffffffffff\n      and\n      0xeb64edb8f6e1a474cc6d178b5374bb558788abb87c624b0626298702754ecec0\n      mload(0x40)\n      mload(0x40)\n      dup1\n      swap2\n      sub\n      swap1\n      log2\n        /* \"CertificateAuthority.sol\":3431:3655  function addIntermediateCA(address caAddress) public onlyRootCA {... */\n      pop\n      jump\t// out\n        /* \"CertificateAuthority.sol\":170:191  address public rootCA */\n    tag_35:\n      0x01\n      0x00\n      swap1\n      sload\n      swap1\n      0x0100\n      exp\n      swap1\n      div\n      0xffffffffffffffffffffffffffffffffffffffff\n      and\n      dup2\n      jump\t// out\n        /* \"CertificateAuthority.sol\":3016:3365  function revokeCertificate(bytes32 certId) public {... */\n    tag_40:\n        /* \"CertificateAuthority.sol\":3085:3097  certificates */\n      0x03\n        /* \"CertificateAuthority.sol\":3085:3105  certificates[certId] */\n      0x00\n        /* \"CertificateAuthority.sol\":3098:3104  certId */\n      dup3\n        /* \"CertificateAuthority.sol\":3085:3105  certificates[certId] */\n      dup2\n      mstore\n      0x20\n      add\n      swap1\n      dup2\n      mstore\n      0x20\n      add\n      0x00\n      keccak256\n        /* \"CertificateAuthority.sol\":3085:3112  certificates[certId].exists */\n      0x03\n      add\n      0x14\n      swap1\n      sload\n      swap1\n      0x0100\n      exp\n      swap1\n      div\n      0xff\n      and\n        /* \"CertificateAuthority.sol\":3077:3143  require(certificates[certId].exists, \"Certificate does not exist\") */\n      tag_66\n      jumpi\n      mload(0x40)\n      0x08c379a000000000000000000000000000000000000000000000000000000000\n      dup2\n      mstore\n      0x04\n      add\n      tag_67\n      swap1\n      tag_68\n      jump\t// in\n    tag_67:\n      mload(0x40)\n      dup1\n      swap2\n      sub\n      swap1\n      revert\n    tag_66:\n        /* \"CertificateAuthority.sol\":3176:3188  certificates */\n      0x03\n        /* \"CertificateAuthority.sol\":3176:3196  certificates[certId] */\n      0x00\n        /* \"CertificateAuthority.sol\":3189:3195  certId */\n      dup3\n        /* \"CertificateAuthority.sol\":3176:3196  certificates[certId] */\n      dup2\n      mstore\n      0x20\n      add\n      swap1\n      dup2\n      mstore\n      0x20\n      add\n      0x00\n      keccak256\n        /* \"CertificateAuthority.sol\":3176:3205  certificates[certId].issuedBy */\n      0x03\n      add\n      0x00\n      swap1\n      sload\n      swap1\n      0x0100\n      exp\n      swap1\n      div\n      0xffffffffffffffffffffffffffffffffffffffff\n      and\n        /* \"CertificateAuthority.sol\":3162:3205  msg.sender == certificates[certId].issuedBy */\n      0xffffffffffffffffffffffffffffffffffffffff\n      and\n        /* \"CertificateAuthority.sol\":3162:3172  msg.sender */\n      caller\n        /* \"CertificateAuthority.sol\":3162:3205  msg.sender == certificates[certId].issuedBy */\n      0xffffffffffffffffffffffffffffffffffffffff\n      and\n      eq\n        /* \"CertificateAuthority.sol\":3154:3253  require(msg.sender == certificates[certId].issuedBy, \"Only the issuer can revoke this certificate\") */\n      tag_69\n      jumpi\n      mload(0x40)\n      0x08c379a000000000000000000000000000000000000000000000000000000000\n      dup2\n      mstore\n      0x04\n      add\n      tag_70\n      swap1\n      tag_71\n      jump\t// in\n    tag_70:\n      mload(0x40)\n      dup1\n      swap2\n      sub\n      swap1\n      revert\n    tag_69:\n        /* \"CertificateAuthority.sol\":3297:3301  true */\n      0x01\n        /* \"CertificateAuthority.sol\":3266:3278  certificates */\n      0x03\n        /* \"CertificateAuthority.sol\":3266:3286  certificates[certId] */\n      0x00\n        /* \"CertificateAuthority.sol\":3279:3285  certId */\n      dup4\n        /* \"CertificateAuthority.sol\":3266:3286  certificates[certId] */\n      dup2\n      mstore\n      0x20\n      add\n      swap1\n      dup2\n      mstore\n      0x20\n      add\n      0x00\n      keccak256\n        /* \"CertificateAuthority.sol\":3266:3294  certificates[certId].revoked */\n      0x03\n      add\n      0x15\n        /* \"CertificateAuthority.sol\":3266:3301  certificates[certId].revoked = true */\n      0x0100\n      exp\n      dup2\n      sload\n      dup2\n      0xff\n      mul\n      not\n      and\n      swap1\n      dup4\n      iszero\n      iszero\n      mul\n      or\n      swap1\n      sstore\n      pop\n        /* \"CertificateAuthority.sol\":3346:3356  msg.sender */\n      caller\n        /* \"CertificateAuthority.sol\":3319:3357  CertificateRevoked(certId, msg.sender) */\n      0xffffffffffffffffffffffffffffffffffffffff\n      and\n        /* \"CertificateAuthority.sol\":3338:3344  certId */\n      dup2\n        /* \"CertificateAuthority.sol\":3319:3357  CertificateRevoked(certId, msg.sender) */\n      0x1dbd7f0554a6447214abb6405781d5ee119037a7024fcb7fffd542c3c12cd776\n      mload(0x40)\n      mload(0x40)\n      dup1\n      swap2\n      sub\n      swap1\n      log3\n        /* \"CertificateAuthority.sol\":3016:3365  function revokeCertificate(bytes32 certId) public {... */\n      pop\n      jump\t// out\n        /* \"CertificateAuthority.sol\":2024:2979  function issueCertificate(... */\n    tag_44:\n        /* \"CertificateAuthority.sol\":1702:1708  rootCA */\n      0x01\n      0x00\n      swap1\n      sload\n      swap1\n      0x0100\n      exp\n      swap1\n      div\n      0xffffffffffffffffffffffffffffffffffffffff\n      and\n        /* \"CertificateAuthority.sol\":1688:1708  msg.sender == rootCA */\n      0xffffffffffffffffffffffffffffffffffffffff\n      and\n        /* \"CertificateAuthority.sol\":1688:1698  msg.sender */\n      caller\n        /* \"CertificateAuthority.sol\":1688:1708  msg.sender == rootCA */\n      0xffffffffffffffffffffffffffffffffffffffff\n      and\n      eq\n        /* \"CertificateAuthority.sol\":1688:1739  msg.sender == rootCA || intermediateCAs[msg.sender] */\n      dup1\n      tag_73\n      jumpi\n      pop\n        /* \"CertificateAuthority.sol\":1712:1727  intermediateCAs */\n      0x02\n        /* \"CertificateAuthority.sol\":1712:1739  intermediateCAs[msg.sender] */\n      0x00\n        /* \"CertificateAuthority.sol\":1728:1738  msg.sender */\n      caller\n        /* \"CertificateAuthority.sol\":1712:1739  intermediateCAs[msg.sender] */\n      0xffffffffffffffffffffffffffffffffffffffff\n      and\n      0xffffffffffffffffffffffffffffffffffffffff\n      and\n      dup2\n      mstore\n      0x20\n      add\n      swap1\n      dup2\n      mstore\n      0x20\n      add\n      0x00\n      keccak256\n      0x00\n      swap1\n      sload\n      swap1\n      0x0100\n      exp\n      swap1\n      div\n      0xff\n      and\n        /* \"CertificateAuthority.sol\":1688:1739  msg.sender == rootCA || intermediateCAs[msg.sender] */\n    tag_73:\n        /* \"CertificateAuthority.sol\":1680:1802  require(msg.sender == rootCA || intermediateCAs[msg.sender], \"Only Root CA or an intermediate CA can perform this action\") */\n      tag_74\n      jumpi\n      mload(0x40)\n      0x08c379a000000000000000000000000000000000000000000000000000000000\n      dup2\n      mstore\n      0x04\n      add\n      tag_75\n      swap1\n      tag_76\n      jump\t// in\n    tag_75:\n      mload(0x40)\n      dup1\n      swap2\n      sub\n      swap1\n      revert\n    tag_74:\n        /* \"CertificateAuthority.sol\":2308:2309  0 */\n      0x00\n        /* \"CertificateAuthority.sol\":2288:2310  issuedTo != address(0) */\n      0xffffffffffffffffffffffffffffffffffffffff\n      and\n        /* \"CertificateAuthority.sol\":2288:2296  issuedTo */\n      dup3\n        /* \"CertificateAuthority.sol\":2288:2310  issuedTo != address(0) */\n      0xffffffffffffffffffffffffffffffffffffffff\n      and\n      sub\n        /* \"CertificateAuthority.sol\":2280:2330  require(issuedTo != address(0), \"Invalid address\") */\n      tag_78\n      jumpi\n      mload(0x40)\n      0x08c379a000000000000000000000000000000000000000000000000000000000\n      dup2\n      mstore\n      0x04\n      add\n      tag_79\n      swap1\n      tag_52\n      jump\t// in\n    tag_79:\n      mload(0x40)\n      dup1\n      swap2\n      sub\n      swap1\n      revert\n    tag_78:\n        /* \"CertificateAuthority.sol\":2367:2368  0 */\n      0x00\n        /* \"CertificateAuthority.sol\":2359:2369  bytes32(0) */\n      dup1\n      shl\n        /* \"CertificateAuthority.sol\":2349:2355  certId */\n      dup4\n        /* \"CertificateAuthority.sol\":2349:2369  certId != bytes32(0) */\n      sub\n        /* \"CertificateAuthority.sol\":2341:2388  require(certId != bytes32(0), \"Invalid certId\") */\n      tag_80\n      jumpi\n      mload(0x40)\n      0x08c379a000000000000000000000000000000000000000000000000000000000\n      dup2\n      mstore\n      0x04\n      add\n      tag_81\n      swap1\n      tag_82\n      jump\t// in\n    tag_81:\n      mload(0x40)\n      dup1\n      swap2\n      sub\n      swap1\n      revert\n    tag_80:\n        /* \"CertificateAuthority.sol\":2463:2475  certificates */\n      0x03\n        /* \"CertificateAuthority.sol\":2463:2483  certificates[certId] */\n      0x00\n        /* \"CertificateAuthority.sol\":2476:2482  certId */\n      dup5\n        /* \"CertificateAuthority.sol\":2463:2483  certificates[certId] */\n      dup2\n      mstore\n      0x20\n      add\n      swap1\n      dup2\n      mstore\n      0x20\n      add\n      0x00\n      keccak256\n        /* \"CertificateAuthority.sol\":2463:2490  certificates[certId].exists */\n      0x03\n      add\n      0x14\n      swap1\n      sload\n      swap1\n      0x0100\n      exp\n      swap1\n      div\n      0xff\n      and\n        /* \"CertificateAuthority.sol\":2462:2490  !certificates[certId].exists */\n      iszero\n        /* \"CertificateAuthority.sol\":2454:2521  require(!certificates[certId].exists, \"Certificate already exists\") */\n      tag_83\n      jumpi\n      mload(0x40)\n      0x08c379a000000000000000000000000000000000000000000000000000000000\n      dup2\n      mstore\n      0x04\n      add\n      tag_84\n      swap1\n      tag_85\n      jump\t// in\n    tag_84:\n      mload(0x40)\n      dup1\n      swap2\n      sub\n      swap1\n      revert\n    tag_83:\n        /* \"CertificateAuthority.sol\":2597:2835  Certificate({... */\n      mload(0x40)\n      dup1\n      0xc0\n      add\n      0x40\n      mstore\n      dup1\n        /* \"CertificateAuthority.sol\":2628:2634  certId */\n      dup5\n        /* \"CertificateAuthority.sol\":2597:2835  Certificate({... */\n      dup2\n      mstore\n      0x20\n      add\n        /* \"CertificateAuthority.sol\":2659:2667  issuedTo */\n      dup4\n        /* \"CertificateAuthority.sol\":2597:2835  Certificate({... */\n      0xffffffffffffffffffffffffffffffffffffffff\n      and\n      dup2\n      mstore\n      0x20\n      add\n        /* \"CertificateAuthority.sol\":2692:2700  certHash */\n      dup3\n        /* \"CertificateAuthority.sol\":2597:2835  Certificate({... */\n      dup2\n      mstore\n      0x20\n      add\n        /* \"CertificateAuthority.sol\":2757:2767  msg.sender */\n      caller\n        /* \"CertificateAuthority.sol\":2597:2835  Certificate({... */\n      0xffffffffffffffffffffffffffffffffffffffff\n      and\n      dup2\n      mstore\n      0x20\n      add\n        /* \"CertificateAuthority.sol\":2790:2794  true */\n      0x01\n        /* \"CertificateAuthority.sol\":2597:2835  Certificate({... */\n      iszero\n      iszero\n      dup2\n      mstore\n      0x20\n      add\n        /* \"CertificateAuthority.sol\":2818:2823  false */\n      0x00\n        /* \"CertificateAuthority.sol\":2597:2835  Certificate({... */\n      iszero\n      iszero\n      dup2\n      mstore\n      pop\n        /* \"CertificateAuthority.sol\":2574:2586  certificates */\n      0x03\n        /* \"CertificateAuthority.sol\":2574:2594  certificates[certId] */\n      0x00\n        /* \"CertificateAuthority.sol\":2587:2593  certId */\n      dup6\n        /* \"CertificateAuthority.sol\":2574:2594  certificates[certId] */\n      dup2\n      mstore\n      0x20\n      add\n      swap1\n      dup2\n      mstore\n      0x20\n      add\n      0x00\n      keccak256\n        /* \"CertificateAuthority.sol\":2574:2835  certificates[certId] = Certificate({... */\n      0x00\n      dup3\n      add\n      mload\n      dup2\n      0x00\n      add\n      sstore\n      0x20\n      dup3\n      add\n      mload\n      dup2\n      0x01\n      add\n      exp(0x0100, 0x00)\n      dup2\n      sload\n      dup2\n      0xffffffffffffffffffffffffffffffffffffffff\n      mul\n      not\n      and\n      swap1\n      dup4\n      0xffffffffffffffffffffffffffffffffffffffff\n      and\n      mul\n      or\n      swap1\n      sstore\n      pop\n      0x40\n      dup3\n      add\n      mload\n      dup2\n      0x02\n      add\n      sstore\n      0x60\n      dup3\n      add\n      mload\n      dup2\n      0x03\n      add\n      exp(0x0100, 0x00)\n      dup2\n      sload\n      dup2\n      0xffffffffffffffffffffffffffffffffffffffff\n      mul\n      not\n      and\n      swap1\n      dup4\n      0xffffffffffffffffffffffffffffffffffffffff\n      and\n      mul\n      or\n      swap1\n      sstore\n      pop\n      0x80\n      dup3\n      add\n      mload\n      dup2\n      0x03\n      add\n      exp(0x0100, 0x14)\n      dup2\n      sload\n      dup2\n      0xff\n      mul\n      not\n      and\n      swap1\n      dup4\n      iszero\n      iszero\n      mul\n      or\n      swap1\n      sstore\n      pop\n      0xa0\n      dup3\n      add\n      mload\n      dup2\n      0x03\n      add\n      exp(0x0100, 0x15)\n      dup2\n      sload\n      dup2\n      0xff\n      mul\n      not\n      and\n      swap1\n      dup4\n      iszero\n      iszero\n      mul\n      or\n      swap1\n      sstore\n      pop\n      swap1\n      pop\n      pop\n        /* \"CertificateAuthority.sol\":2960:2970  msg.sender */\n      caller\n        /* \"CertificateAuthority.sol\":2914:2971  CertificateIssued(certId, issuedTo, certHash, msg.sender) */\n      0xffffffffffffffffffffffffffffffffffffffff\n      and\n        /* \"CertificateAuthority.sol\":2940:2948  issuedTo */\n      dup3\n        /* \"CertificateAuthority.sol\":2914:2971  CertificateIssued(certId, issuedTo, certHash, msg.sender) */\n      0xffffffffffffffffffffffffffffffffffffffff\n      and\n        /* \"CertificateAuthority.sol\":2932:2938  certId */\n      dup5\n        /* \"CertificateAuthority.sol\":2914:2971  CertificateIssued(certId, issuedTo, certHash, msg.sender) */\n      0x828cac8baaa59e7df23f9a505eb54f60ee6475699a0f0c7e00f342d345cb5dff\n        /* \"CertificateAuthority.sol\":2950:2958  certHash */\n      dup5\n        /* \"CertificateAuthority.sol\":2914:2971  CertificateIssued(certId, issuedTo, certHash, msg.sender) */\n      mload(0x40)\n      tag_86\n      swap2\n      swap1\n      tag_87\n      jump\t// in\n    tag_86:\n      mload(0x40)\n      dup1\n      swap2\n      sub\n      swap1\n      log4\n        /* \"CertificateAuthority.sol\":2024:2979  function issueCertificate(... */\n      pop\n      pop\n      pop\n      jump\t// out\n        /* \"#utility.yul\":88:205   */\n    tag_89:\n        /* \"#utility.yul\":197:198   */\n      0x00\n        /* \"#utility.yul\":194:195   */\n      dup1\n        /* \"#utility.yul\":187:199   */\n      revert\n        /* \"#utility.yul\":334:460   */\n    tag_91:\n        /* \"#utility.yul\":371:378   */\n      0x00\n        /* \"#utility.yul\":411:453   */\n      0xffffffffffffffffffffffffffffffffffffffff\n        /* \"#utility.yul\":404:409   */\n      dup3\n        /* \"#utility.yul\":400:454   */\n      and\n        /* \"#utility.yul\":389:454   */\n      swap1\n      pop\n        /* \"#utility.yul\":334:460   */\n      swap2\n      swap1\n      pop\n      jump\t// out\n        /* \"#utility.yul\":466:562   */\n    tag_92:\n        /* \"#utility.yul\":503:510   */\n      0x00\n        /* \"#utility.yul\":532:556   */\n      tag_128\n        /* \"#utility.yul\":550:555   */\n      dup3\n        /* \"#utility.yul\":532:556   */\n      tag_91\n      jump\t// in\n    tag_128:\n        /* \"#utility.yul\":521:556   */\n      swap1\n      pop\n        /* \"#utility.yul\":466:562   */\n      swap2\n      swap1\n      pop\n      jump\t// out\n        /* \"#utility.yul\":568:690   */\n    tag_93:\n        /* \"#utility.yul\":641:665   */\n      tag_130\n        /* \"#utility.yul\":659:664   */\n      dup2\n        /* \"#utility.yul\":641:665   */\n      tag_92\n      jump\t// in\n    tag_130:\n        /* \"#utility.yul\":634:639   */\n      dup2\n        /* \"#utility.yul\":631:666   */\n      eq\n        /* \"#utility.yul\":621:684   */\n      tag_131\n      jumpi\n        /* \"#utility.yul\":680:681   */\n      0x00\n        /* \"#utility.yul\":677:678   */\n      dup1\n        /* \"#utility.yul\":670:682   */\n      revert\n        /* \"#utility.yul\":621:684   */\n    tag_131:\n        /* \"#utility.yul\":568:690   */\n      pop\n      jump\t// out\n        /* \"#utility.yul\":696:835   */\n    tag_94:\n        /* \"#utility.yul\":742:747   */\n      0x00\n        /* \"#utility.yul\":780:786   */\n      dup2\n        /* \"#utility.yul\":767:787   */\n      calldataload\n        /* \"#utility.yul\":758:787   */\n      swap1\n      pop\n        /* \"#utility.yul\":796:829   */\n      tag_133\n        /* \"#utility.yul\":823:828   */\n      dup2\n        /* \"#utility.yul\":796:829   */\n      tag_93\n      jump\t// in\n    tag_133:\n        /* \"#utility.yul\":696:835   */\n      swap3\n      swap2\n      pop\n      pop\n      jump\t// out\n        /* \"#utility.yul\":841:1170   */\n    tag_14:\n        /* \"#utility.yul\":900:906   */\n      0x00\n        /* \"#utility.yul\":949:951   */\n      0x20\n        /* \"#utility.yul\":937:946   */\n      dup3\n        /* \"#utility.yul\":928:935   */\n      dup5\n        /* \"#utility.yul\":924:947   */\n      sub\n        /* \"#utility.yul\":920:952   */\n      slt\n        /* \"#utility.yul\":917:1036   */\n      iszero\n      tag_135\n      jumpi\n        /* \"#utility.yul\":955:1034   */\n      tag_136\n      tag_89\n      jump\t// in\n    tag_136:\n        /* \"#utility.yul\":917:1036   */\n    tag_135:\n        /* \"#utility.yul\":1075:1076   */\n      0x00\n        /* \"#utility.yul\":1100:1153   */\n      tag_137\n        /* \"#utility.yul\":1145:1152   */\n      dup5\n        /* \"#utility.yul\":1136:1142   */\n      dup3\n        /* \"#utility.yul\":1125:1134   */\n      dup6\n        /* \"#utility.yul\":1121:1143   */\n      add\n        /* \"#utility.yul\":1100:1153   */\n      tag_94\n      jump\t// in\n    tag_137:\n        /* \"#utility.yul\":1090:1153   */\n      swap2\n      pop\n        /* \"#utility.yul\":1046:1163   */\n      pop\n        /* \"#utility.yul\":841:1170   */\n      swap3\n      swap2\n      pop\n      pop\n      jump\t// out\n        /* \"#utility.yul\":1176:1275   */\n    tag_95:\n        /* \"#utility.yul\":1228:1234   */\n      0x00\n        /* \"#utility.yul\":1262:1267   */\n      dup2\n        /* \"#utility.yul\":1256:1268   */\n      mload\n        /* \"#utility.yul\":1246:1268   */\n      swap1\n      pop\n        /* \"#utility.yul\":1176:1275   */\n      swap2\n      swap1\n      pop\n      jump\t// out\n        /* \"#utility.yul\":1281:1450   */\n    tag_96:\n        /* \"#utility.yul\":1365:1376   */\n      0x00\n        /* \"#utility.yul\":1399:1405   */\n      dup3\n        /* \"#utility.yul\":1394:1397   */\n      dup3\n        /* \"#utility.yul\":1387:1406   */\n      mstore\n        /* \"#utility.yul\":1439:1443   */\n      0x20\n        /* \"#utility.yul\":1434:1437   */\n      dup3\n        /* \"#utility.yul\":1430:1444   */\n      add\n        /* \"#utility.yul\":1415:1444   */\n      swap1\n      pop\n        /* \"#utility.yul\":1281:1450   */\n      swap3\n      swap2\n      pop\n      pop\n      jump\t// out\n        /* \"#utility.yul\":1456:1595   */\n    tag_97:\n        /* \"#utility.yul\":1545:1551   */\n      dup3\n        /* \"#utility.yul\":1540:1543   */\n      dup2\n        /* \"#utility.yul\":1535:1538   */\n      dup4\n        /* \"#utility.yul\":1529:1552   */\n      mcopy\n        /* \"#utility.yul\":1586:1587   */\n      0x00\n        /* \"#utility.yul\":1577:1583   */\n      dup4\n        /* \"#utility.yul\":1572:1575   */\n      dup4\n        /* \"#utility.yul\":1568:1584   */\n      add\n        /* \"#utility.yul\":1561:1588   */\n      mstore\n        /* \"#utility.yul\":1456:1595   */\n      pop\n      pop\n      pop\n      jump\t// out\n        /* \"#utility.yul\":1601:1703   */\n    tag_98:\n        /* \"#utility.yul\":1642:1648   */\n      0x00\n        /* \"#utility.yul\":1693:1695   */\n      0x1f\n        /* \"#utility.yul\":1689:1696   */\n      not\n        /* \"#utility.yul\":1684:1686   */\n      0x1f\n        /* \"#utility.yul\":1677:1682   */\n      dup4\n        /* \"#utility.yul\":1673:1687   */\n      add\n        /* \"#utility.yul\":1669:1697   */\n      and\n        /* \"#utility.yul\":1659:1697   */\n      swap1\n      pop\n        /* \"#utility.yul\":1601:1703   */\n      swap2\n      swap1\n      pop\n      jump\t// out\n        /* \"#utility.yul\":1709:2086   */\n    tag_99:\n        /* \"#utility.yul\":1797:1800   */\n      0x00\n        /* \"#utility.yul\":1825:1864   */\n      tag_143\n        /* \"#utility.yul\":1858:1863   */\n      dup3\n        /* \"#utility.yul\":1825:1864   */\n      tag_95\n      jump\t// in\n    tag_143:\n        /* \"#utility.yul\":1880:1951   */\n      tag_144\n        /* \"#utility.yul\":1944:1950   */\n      dup2\n        /* \"#utility.yul\":1939:1942   */\n      dup6\n        /* \"#utility.yul\":1880:1951   */\n      tag_96\n      jump\t// in\n    tag_144:\n        /* \"#utility.yul\":1873:1951   */\n      swap4\n      pop\n        /* \"#utility.yul\":1960:2025   */\n      tag_145\n        /* \"#utility.yul\":2018:2024   */\n      dup2\n        /* \"#utility.yul\":2013:2016   */\n      dup6\n        /* \"#utility.yul\":2006:2010   */\n      0x20\n        /* \"#utility.yul\":1999:2004   */\n      dup7\n        /* \"#utility.yul\":1995:2011   */\n      add\n        /* \"#utility.yul\":1960:2025   */\n      tag_97\n      jump\t// in\n    tag_145:\n        /* \"#utility.yul\":2050:2079   */\n      tag_146\n        /* \"#utility.yul\":2072:2078   */\n      dup2\n        /* \"#utility.yul\":2050:2079   */\n      tag_98\n      jump\t// in\n    tag_146:\n        /* \"#utility.yul\":2045:2048   */\n      dup5\n        /* \"#utility.yul\":2041:2080   */\n      add\n        /* \"#utility.yul\":2034:2080   */\n      swap2\n      pop\n        /* \"#utility.yul\":1801:2086   */\n      pop\n        /* \"#utility.yul\":1709:2086   */\n      swap3\n      swap2\n      pop\n      pop\n      jump\t// out\n        /* \"#utility.yul\":2092:2405   */\n    tag_19:\n        /* \"#utility.yul\":2205:2209   */\n      0x00\n        /* \"#utility.yul\":2243:2245   */\n      0x20\n        /* \"#utility.yul\":2232:2241   */\n      dup3\n        /* \"#utility.yul\":2228:2246   */\n      add\n        /* \"#utility.yul\":2220:2246   */\n      swap1\n      pop\n        /* \"#utility.yul\":2292:2301   */\n      dup2\n        /* \"#utility.yul\":2286:2290   */\n      dup2\n        /* \"#utility.yul\":2282:2302   */\n      sub\n        /* \"#utility.yul\":2278:2279   */\n      0x00\n        /* \"#utility.yul\":2267:2276   */\n      dup4\n        /* \"#utility.yul\":2263:2280   */\n      add\n        /* \"#utility.yul\":2256:2303   */\n      mstore\n        /* \"#utility.yul\":2320:2398   */\n      tag_148\n        /* \"#utility.yul\":2393:2397   */\n      dup2\n        /* \"#utility.yul\":2384:2390   */\n      dup5\n        /* \"#utility.yul\":2320:2398   */\n      tag_99\n      jump\t// in\n    tag_148:\n        /* \"#utility.yul\":2312:2398   */\n      swap1\n      pop\n        /* \"#utility.yul\":2092:2405   */\n      swap3\n      swap2\n      pop\n      pop\n      jump\t// out\n        /* \"#utility.yul\":2411:2501   */\n    tag_100:\n        /* \"#utility.yul\":2445:2452   */\n      0x00\n        /* \"#utility.yul\":2488:2493   */\n      dup2\n        /* \"#utility.yul\":2481:2494   */\n      iszero\n        /* \"#utility.yul\":2474:2495   */\n      iszero\n        /* \"#utility.yul\":2463:2495   */\n      swap1\n      pop\n        /* \"#utility.yul\":2411:2501   */\n      swap2\n      swap1\n      pop\n      jump\t// out\n        /* \"#utility.yul\":2507:2616   */\n    tag_101:\n        /* \"#utility.yul\":2588:2609   */\n      tag_151\n        /* \"#utility.yul\":2603:2608   */\n      dup2\n        /* \"#utility.yul\":2588:2609   */\n      tag_100\n      jump\t// in\n    tag_151:\n        /* \"#utility.yul\":2583:2586   */\n      dup3\n        /* \"#utility.yul\":2576:2610   */\n      mstore\n        /* \"#utility.yul\":2507:2616   */\n      pop\n      pop\n      jump\t// out\n        /* \"#utility.yul\":2622:2832   */\n    tag_24:\n        /* \"#utility.yul\":2709:2713   */\n      0x00\n        /* \"#utility.yul\":2747:2749   */\n      0x20\n        /* \"#utility.yul\":2736:2745   */\n      dup3\n        /* \"#utility.yul\":2732:2750   */\n      add\n        /* \"#utility.yul\":2724:2750   */\n      swap1\n      pop\n        /* \"#utility.yul\":2760:2825   */\n      tag_153\n        /* \"#utility.yul\":2822:2823   */\n      0x00\n        /* \"#utility.yul\":2811:2820   */\n      dup4\n        /* \"#utility.yul\":2807:2824   */\n      add\n        /* \"#utility.yul\":2798:2804   */\n      dup5\n        /* \"#utility.yul\":2760:2825   */\n      tag_101\n      jump\t// in\n    tag_153:\n        /* \"#utility.yul\":2622:2832   */\n      swap3\n      swap2\n      pop\n      pop\n      jump\t// out\n        /* \"#utility.yul\":2838:2915   */\n    tag_102:\n        /* \"#utility.yul\":2875:2882   */\n      0x00\n        /* \"#utility.yul\":2904:2909   */\n      dup2\n        /* \"#utility.yul\":2893:2909   */\n      swap1\n      pop\n        /* \"#utility.yul\":2838:2915   */\n      swap2\n      swap1\n      pop\n      jump\t// out\n        /* \"#utility.yul\":2921:3043   */\n    tag_103:\n        /* \"#utility.yul\":2994:3018   */\n      tag_156\n        /* \"#utility.yul\":3012:3017   */\n      dup2\n        /* \"#utility.yul\":2994:3018   */\n      tag_102\n      jump\t// in\n    tag_156:\n        /* \"#utility.yul\":2987:2992   */\n      dup2\n        /* \"#utility.yul\":2984:3019   */\n      eq\n        /* \"#utility.yul\":2974:3037   */\n      tag_157\n      jumpi\n        /* \"#utility.yul\":3033:3034   */\n      0x00\n        /* \"#utility.yul\":3030:3031   */\n      dup1\n        /* \"#utility.yul\":3023:3035   */\n      revert\n        /* \"#utility.yul\":2974:3037   */\n    tag_157:\n        /* \"#utility.yul\":2921:3043   */\n      pop\n      jump\t// out\n        /* \"#utility.yul\":3049:3188   */\n    tag_104:\n        /* \"#utility.yul\":3095:3100   */\n      0x00\n        /* \"#utility.yul\":3133:3139   */\n      dup2\n        /* \"#utility.yul\":3120:3140   */\n      calldataload\n        /* \"#utility.yul\":3111:3140   */\n      swap1\n      pop\n        /* \"#utility.yul\":3149:3182   */\n      tag_159\n        /* \"#utility.yul\":3176:3181   */\n      dup2\n        /* \"#utility.yul\":3149:3182   */\n      tag_103\n      jump\t// in\n    tag_159:\n        /* \"#utility.yul\":3049:3188   */\n      swap3\n      swap2\n      pop\n      pop\n      jump\t// out\n        /* \"#utility.yul\":3194:3523   */\n    tag_27:\n        /* \"#utility.yul\":3253:3259   */\n      0x00\n        /* \"#utility.yul\":3302:3304   */\n      0x20\n        /* \"#utility.yul\":3290:3299   */\n      dup3\n        /* \"#utility.yul\":3281:3288   */\n      dup5\n        /* \"#utility.yul\":3277:3300   */\n      sub\n        /* \"#utility.yul\":3273:3305   */\n      slt\n        /* \"#utility.yul\":3270:3389   */\n      iszero\n      tag_161\n      jumpi\n        /* \"#utility.yul\":3308:3387   */\n      tag_162\n      tag_89\n      jump\t// in\n    tag_162:\n        /* \"#utility.yul\":3270:3389   */\n    tag_161:\n        /* \"#utility.yul\":3428:3429   */\n      0x00\n        /* \"#utility.yul\":3453:3506   */\n      tag_163\n        /* \"#utility.yul\":3498:3505   */\n      dup5\n        /* \"#utility.yul\":3489:3495   */\n      dup3\n        /* \"#utility.yul\":3478:3487   */\n      dup6\n        /* \"#utility.yul\":3474:3496   */\n      add\n        /* \"#utility.yul\":3453:3506   */\n      tag_104\n      jump\t// in\n    tag_163:\n        /* \"#utility.yul\":3443:3506   */\n      swap2\n      pop\n        /* \"#utility.yul\":3399:3516   */\n      pop\n        /* \"#utility.yul\":3194:3523   */\n      swap3\n      swap2\n      pop\n      pop\n      jump\t// out\n        /* \"#utility.yul\":3529:3647   */\n    tag_105:\n        /* \"#utility.yul\":3616:3640   */\n      tag_165\n        /* \"#utility.yul\":3634:3639   */\n      dup2\n        /* \"#utility.yul\":3616:3640   */\n      tag_102\n      jump\t// in\n    tag_165:\n        /* \"#utility.yul\":3611:3614   */\n      dup3\n        /* \"#utility.yul\":3604:3641   */\n      mstore\n        /* \"#utility.yul\":3529:3647   */\n      pop\n      pop\n      jump\t// out\n        /* \"#utility.yul\":3653:3771   */\n    tag_106:\n        /* \"#utility.yul\":3740:3764   */\n      tag_167\n        /* \"#utility.yul\":3758:3763   */\n      dup2\n        /* \"#utility.yul\":3740:3764   */\n      tag_92\n      jump\t// in\n    tag_167:\n        /* \"#utility.yul\":3735:3738   */\n      dup3\n        /* \"#utility.yul\":3728:3765   */\n      mstore\n        /* \"#utility.yul\":3653:3771   */\n      pop\n      pop\n      jump\t// out\n        /* \"#utility.yul\":3777:4528   */\n    tag_30:\n        /* \"#utility.yul\":3998:4002   */\n      0x00\n        /* \"#utility.yul\":4036:4039   */\n      0xc0\n        /* \"#utility.yul\":4025:4034   */\n      dup3\n        /* \"#utility.yul\":4021:4040   */\n      add\n        /* \"#utility.yul\":4013:4040   */\n      swap1\n      pop\n        /* \"#utility.yul\":4050:4121   */\n      tag_169\n        /* \"#utility.yul\":4118:4119   */\n      0x00\n        /* \"#utility.yul\":4107:4116   */\n      dup4\n        /* \"#utility.yul\":4103:4120   */\n      add\n        /* \"#utility.yul\":4094:4100   */\n      dup10\n        /* \"#utility.yul\":4050:4121   */\n      tag_105\n      jump\t// in\n    tag_169:\n        /* \"#utility.yul\":4131:4203   */\n      tag_170\n        /* \"#utility.yul\":4199:4201   */\n      0x20\n        /* \"#utility.yul\":4188:4197   */\n      dup4\n        /* \"#utility.yul\":4184:4202   */\n      add\n        /* \"#utility.yul\":4175:4181   */\n      dup9\n        /* \"#utility.yul\":4131:4203   */\n      tag_106\n      jump\t// in\n    tag_170:\n        /* \"#utility.yul\":4213:4285   */\n      tag_171\n        /* \"#utility.yul\":4281:4283   */\n      0x40\n        /* \"#utility.yul\":4270:4279   */\n      dup4\n        /* \"#utility.yul\":4266:4284   */\n      add\n        /* \"#utility.yul\":4257:4263   */\n      dup8\n        /* \"#utility.yul\":4213:4285   */\n      tag_105\n      jump\t// in\n    tag_171:\n        /* \"#utility.yul\":4295:4367   */\n      tag_172\n        /* \"#utility.yul\":4363:4365   */\n      0x60\n        /* \"#utility.yul\":4352:4361   */\n      dup4\n        /* \"#utility.yul\":4348:4366   */\n      add\n        /* \"#utility.yul\":4339:4345   */\n      dup7\n        /* \"#utility.yul\":4295:4367   */\n      tag_106\n      jump\t// in\n    tag_172:\n        /* \"#utility.yul\":4377:4444   */\n      tag_173\n        /* \"#utility.yul\":4439:4442   */\n      0x80\n        /* \"#utility.yul\":4428:4437   */\n      dup4\n        /* \"#utility.yul\":4424:4443   */\n      add\n        /* \"#utility.yul\":4415:4421   */\n      dup6\n        /* \"#utility.yul\":4377:4444   */\n      tag_101\n      jump\t// in\n    tag_173:\n        /* \"#utility.yul\":4454:4521   */\n      tag_174\n        /* \"#utility.yul\":4516:4519   */\n      0xa0\n        /* \"#utility.yul\":4505:4514   */\n      dup4\n        /* \"#utility.yul\":4501:4520   */\n      add\n        /* \"#utility.yul\":4492:4498   */\n      dup5\n        /* \"#utility.yul\":4454:4521   */\n      tag_101\n      jump\t// in\n    tag_174:\n        /* \"#utility.yul\":3777:4528   */\n      swap8\n      swap7\n      pop\n      pop\n      pop\n      pop\n      pop\n      pop\n      pop\n      jump\t// out\n        /* \"#utility.yul\":4534:4756   */\n    tag_37:\n        /* \"#utility.yul\":4627:4631   */\n      0x00\n        /* \"#utility.yul\":4665:4667   */\n      0x20\n        /* \"#utility.yul\":4654:4663   */\n      dup3\n        /* \"#utility.yul\":4650:4668   */\n      add\n        /* \"#utility.yul\":4642:4668   */\n      swap1\n      pop\n        /* \"#utility.yul\":4678:4749   */\n      tag_176\n        /* \"#utility.yul\":4746:4747   */\n      0x00\n        /* \"#utility.yul\":4735:4744   */\n      dup4\n        /* \"#utility.yul\":4731:4748   */\n      add\n        /* \"#utility.yul\":4722:4728   */\n      dup5\n        /* \"#utility.yul\":4678:4749   */\n      tag_106\n      jump\t// in\n    tag_176:\n        /* \"#utility.yul\":4534:4756   */\n      swap3\n      swap2\n      pop\n      pop\n      jump\t// out\n        /* \"#utility.yul\":4762:5381   */\n    tag_43:\n        /* \"#utility.yul\":4839:4845   */\n      0x00\n        /* \"#utility.yul\":4847:4853   */\n      dup1\n        /* \"#utility.yul\":4855:4861   */\n      0x00\n        /* \"#utility.yul\":4904:4906   */\n      0x60\n        /* \"#utility.yul\":4892:4901   */\n      dup5\n        /* \"#utility.yul\":4883:4890   */\n      dup7\n        /* \"#utility.yul\":4879:4902   */\n      sub\n        /* \"#utility.yul\":4875:4907   */\n      slt\n        /* \"#utility.yul\":4872:4991   */\n      iszero\n      tag_178\n      jumpi\n        /* \"#utility.yul\":4910:4989   */\n      tag_179\n      tag_89\n      jump\t// in\n    tag_179:\n        /* \"#utility.yul\":4872:4991   */\n    tag_178:\n        /* \"#utility.yul\":5030:5031   */\n      0x00\n        /* \"#utility.yul\":5055:5108   */\n      tag_180\n        /* \"#utility.yul\":5100:5107   */\n      dup7\n        /* \"#utility.yul\":5091:5097   */\n      dup3\n        /* \"#utility.yul\":5080:5089   */\n      dup8\n        /* \"#utility.yul\":5076:5098   */\n      add\n        /* \"#utility.yul\":5055:5108   */\n      tag_104\n      jump\t// in\n    tag_180:\n        /* \"#utility.yul\":5045:5108   */\n      swap4\n      pop\n        /* \"#utility.yul\":5001:5118   */\n      pop\n        /* \"#utility.yul\":5157:5159   */\n      0x20\n        /* \"#utility.yul\":5183:5236   */\n      tag_181\n        /* \"#utility.yul\":5228:5235   */\n      dup7\n        /* \"#utility.yul\":5219:5225   */\n      dup3\n        /* \"#utility.yul\":5208:5217   */\n      dup8\n        /* \"#utility.yul\":5204:5226   */\n      add\n        /* \"#utility.yul\":5183:5236   */\n      tag_94\n      jump\t// in\n    tag_181:\n        /* \"#utility.yul\":5173:5236   */\n      swap3\n      pop\n        /* \"#utility.yul\":5128:5246   */\n      pop\n        /* \"#utility.yul\":5285:5287   */\n      0x40\n        /* \"#utility.yul\":5311:5364   */\n      tag_182\n        /* \"#utility.yul\":5356:5363   */\n      dup7\n        /* \"#utility.yul\":5347:5353   */\n      dup3\n        /* \"#utility.yul\":5336:5345   */\n      dup8\n        /* \"#utility.yul\":5332:5354   */\n      add\n        /* \"#utility.yul\":5311:5364   */\n      tag_104\n      jump\t// in\n    tag_182:\n        /* \"#utility.yul\":5301:5364   */\n      swap2\n      pop\n        /* \"#utility.yul\":5256:5374   */\n      pop\n        /* \"#utility.yul\":4762:5381   */\n      swap3\n      pop\n      swap3\n      pop\n      swap3\n      jump\t// out\n        /* \"#utility.yul\":5387:5610   */\n    tag_107:\n        /* \"#utility.yul\":5527:5561   */\n      0x4f6e6c792047534d412043492063616e20706572666f726d2074686973206163\n        /* \"#utility.yul\":5523:5524   */\n      0x00\n        /* \"#utility.yul\":5515:5521   */\n      dup3\n        /* \"#utility.yul\":5511:5525   */\n      add\n        /* \"#utility.yul\":5504:5562   */\n      mstore\n        /* \"#utility.yul\":5596:5602   */\n      0x74696f6e00000000000000000000000000000000000000000000000000000000\n        /* \"#utility.yul\":5591:5593   */\n      0x20\n        /* \"#utility.yul\":5583:5589   */\n      dup3\n        /* \"#utility.yul\":5579:5594   */\n      add\n        /* \"#utility.yul\":5572:5603   */\n      mstore\n        /* \"#utility.yul\":5387:5610   */\n      pop\n      jump\t// out\n        /* \"#utility.yul\":5616:5982   */\n    tag_108:\n        /* \"#utility.yul\":5758:5761   */\n      0x00\n        /* \"#utility.yul\":5779:5846   */\n      tag_185\n        /* \"#utility.yul\":5843:5845   */\n      0x24\n        /* \"#utility.yul\":5838:5841   */\n      dup4\n        /* \"#utility.yul\":5779:5846   */\n      tag_96\n      jump\t// in\n    tag_185:\n        /* \"#utility.yul\":5772:5846   */\n      swap2\n      pop\n        /* \"#utility.yul\":5855:5948   */\n      tag_186\n        /* \"#utility.yul\":5944:5947   */\n      dup3\n        /* \"#utility.yul\":5855:5948   */\n      tag_107\n      jump\t// in\n    tag_186:\n        /* \"#utility.yul\":5973:5975   */\n      0x40\n        /* \"#utility.yul\":5968:5971   */\n      dup3\n        /* \"#utility.yul\":5964:5976   */\n      add\n        /* \"#utility.yul\":5957:5976   */\n      swap1\n      pop\n        /* \"#utility.yul\":5616:5982   */\n      swap2\n      swap1\n      pop\n      jump\t// out\n        /* \"#utility.yul\":5988:6407   */\n    tag_48:\n        /* \"#utility.yul\":6154:6158   */\n      0x00\n        /* \"#utility.yul\":6192:6194   */\n      0x20\n        /* \"#utility.yul\":6181:6190   */\n      dup3\n        /* \"#utility.yul\":6177:6195   */\n      add\n        /* \"#utility.yul\":6169:6195   */\n      swap1\n      pop\n        /* \"#utility.yul\":6241:6250   */\n      dup2\n        /* \"#utility.yul\":6235:6239   */\n      dup2\n        /* \"#utility.yul\":6231:6251   */\n      sub\n        /* \"#utility.yul\":6227:6228   */\n      0x00\n        /* \"#utility.yul\":6216:6225   */\n      dup4\n        /* \"#utility.yul\":6212:6229   */\n      add\n        /* \"#utility.yul\":6205:6252   */\n      mstore\n        /* \"#utility.yul\":6269:6400   */\n      tag_188\n        /* \"#utility.yul\":6395:6399   */\n      dup2\n        /* \"#utility.yul\":6269:6400   */\n      tag_108\n      jump\t// in\n    tag_188:\n        /* \"#utility.yul\":6261:6400   */\n      swap1\n      pop\n        /* \"#utility.yul\":5988:6407   */\n      swap2\n      swap1\n      pop\n      jump\t// out\n        /* \"#utility.yul\":6413:6578   */\n    tag_109:\n        /* \"#utility.yul\":6553:6570   */\n      0x496e76616c696420616464726573730000000000000000000000000000000000\n        /* \"#utility.yul\":6549:6550   */\n      0x00\n        /* \"#utility.yul\":6541:6547   */\n      dup3\n        /* \"#utility.yul\":6537:6551   */\n      add\n        /* \"#utility.yul\":6530:6571   */\n      mstore\n        /* \"#utility.yul\":6413:6578   */\n      pop\n      jump\t// out\n        /* \"#utility.yul\":6584:6950   */\n    tag_110:\n        /* \"#utility.yul\":6726:6729   */\n      0x00\n        /* \"#utility.yul\":6747:6814   */\n      tag_191\n        /* \"#utility.yul\":6811:6813   */\n      0x0f\n        /* \"#utility.yul\":6806:6809   */\n      dup4\n        /* \"#utility.yul\":6747:6814   */\n      tag_96\n      jump\t// in\n    tag_191:\n        /* \"#utility.yul\":6740:6814   */\n      swap2\n      pop\n        /* \"#utility.yul\":6823:6916   */\n      tag_192\n        /* \"#utility.yul\":6912:6915   */\n      dup3\n        /* \"#utility.yul\":6823:6916   */\n      tag_109\n      jump\t// in\n    tag_192:\n        /* \"#utility.yul\":6941:6943   */\n      0x20\n        /* \"#utility.yul\":6936:6939   */\n      dup3\n        /* \"#utility.yul\":6932:6944   */\n      add\n        /* \"#utility.yul\":6925:6944   */\n      swap1\n      pop\n        /* \"#utility.yul\":6584:6950   */\n      swap2\n      swap1\n      pop\n      jump\t// out\n        /* \"#utility.yul\":6956:7375   */\n    tag_52:\n        /* \"#utility.yul\":7122:7126   */\n      0x00\n        /* \"#utility.yul\":7160:7162   */\n      0x20\n        /* \"#utility.yul\":7149:7158   */\n      dup3\n        /* \"#utility.yul\":7145:7163   */\n      add\n        /* \"#utility.yul\":7137:7163   */\n      swap1\n      pop\n        /* \"#utility.yul\":7209:7218   */\n      dup2\n        /* \"#utility.yul\":7203:7207   */\n      dup2\n        /* \"#utility.yul\":7199:7219   */\n      sub\n        /* \"#utility.yul\":7195:7196   */\n      0x00\n        /* \"#utility.yul\":7184:7193   */\n      dup4\n        /* \"#utility.yul\":7180:7197   */\n      add\n        /* \"#utility.yul\":7173:7220   */\n      mstore\n        /* \"#utility.yul\":7237:7368   */\n      tag_194\n        /* \"#utility.yul\":7363:7367   */\n      dup2\n        /* \"#utility.yul\":7237:7368   */\n      tag_110\n      jump\t// in\n    tag_194:\n        /* \"#utility.yul\":7229:7368   */\n      swap1\n      pop\n        /* \"#utility.yul\":6956:7375   */\n      swap2\n      swap1\n      pop\n      jump\t// out\n        /* \"#utility.yul\":7381:7561   */\n    tag_111:\n        /* \"#utility.yul\":7429:7506   */\n      0x4e487b7100000000000000000000000000000000000000000000000000000000\n        /* \"#utility.yul\":7426:7427   */\n      0x00\n        /* \"#utility.yul\":7419:7507   */\n      mstore\n        /* \"#utility.yul\":7526:7530   */\n      0x22\n        /* \"#utility.yul\":7523:7524   */\n      0x04\n        /* \"#utility.yul\":7516:7531   */\n      mstore\n        /* \"#utility.yul\":7550:7554   */\n      0x24\n        /* \"#utility.yul\":7547:7548   */\n      0x00\n        /* \"#utility.yul\":7540:7555   */\n      revert\n        /* \"#utility.yul\":7567:7887   */\n    tag_54:\n        /* \"#utility.yul\":7611:7617   */\n      0x00\n        /* \"#utility.yul\":7648:7649   */\n      0x02\n        /* \"#utility.yul\":7642:7646   */\n      dup3\n        /* \"#utility.yul\":7638:7650   */\n      div\n        /* \"#utility.yul\":7628:7650   */\n      swap1\n      pop\n        /* \"#utility.yul\":7695:7696   */\n      0x01\n        /* \"#utility.yul\":7689:7693   */\n      dup3\n        /* \"#utility.yul\":7685:7697   */\n      and\n        /* \"#utility.yul\":7716:7734   */\n      dup1\n        /* \"#utility.yul\":7706:7787   */\n      tag_197\n      jumpi\n        /* \"#utility.yul\":7772:7776   */\n      0x7f\n        /* \"#utility.yul\":7764:7770   */\n      dup3\n        /* \"#utility.yul\":7760:7777   */\n      and\n        /* \"#utility.yul\":7750:7777   */\n      swap2\n      pop\n        /* \"#utility.yul\":7706:7787   */\n    tag_197:\n        /* \"#utility.yul\":7834:7836   */\n      0x20\n        /* \"#utility.yul\":7826:7832   */\n      dup3\n        /* \"#utility.yul\":7823:7837   */\n      lt\n        /* \"#utility.yul\":7803:7821   */\n      dup2\n        /* \"#utility.yul\":7800:7838   */\n      sub\n        /* \"#utility.yul\":7797:7881   */\n      tag_198\n      jumpi\n        /* \"#utility.yul\":7853:7871   */\n      tag_199\n      tag_111\n      jump\t// in\n    tag_199:\n        /* \"#utility.yul\":7797:7881   */\n    tag_198:\n        /* \"#utility.yul\":7618:7887   */\n      pop\n        /* \"#utility.yul\":7567:7887   */\n      swap2\n      swap1\n      pop\n      jump\t// out\n        /* \"#utility.yul\":7893:8069   */\n    tag_112:\n        /* \"#utility.yul\":8033:8061   */\n      0x436572746966696361746520646f6573206e6f74206578697374000000000000\n        /* \"#utility.yul\":8029:8030   */\n      0x00\n        /* \"#utility.yul\":8021:8027   */\n      dup3\n        /* \"#utility.yul\":8017:8031   */\n      add\n        /* \"#utility.yul\":8010:8062   */\n      mstore\n        /* \"#utility.yul\":7893:8069   */\n      pop\n      jump\t// out\n        /* \"#utility.yul\":8075:8441   */\n    tag_113:\n        /* \"#utility.yul\":8217:8220   */\n      0x00\n        /* \"#utility.yul\":8238:8305   */\n      tag_202\n        /* \"#utility.yul\":8302:8304   */\n      0x1a\n        /* \"#utility.yul\":8297:8300   */\n      dup4\n        /* \"#utility.yul\":8238:8305   */\n      tag_96\n      jump\t// in\n    tag_202:\n        /* \"#utility.yul\":8231:8305   */\n      swap2\n      pop\n        /* \"#utility.yul\":8314:8407   */\n      tag_203\n        /* \"#utility.yul\":8403:8406   */\n      dup3\n        /* \"#utility.yul\":8314:8407   */\n      tag_112\n      jump\t// in\n    tag_203:\n        /* \"#utility.yul\":8432:8434   */\n      0x20\n        /* \"#utility.yul\":8427:8430   */\n      dup3\n        /* \"#utility.yul\":8423:8435   */\n      add\n        /* \"#utility.yul\":8416:8435   */\n      swap1\n      pop\n        /* \"#utility.yul\":8075:8441   */\n      swap2\n      swap1\n      pop\n      jump\t// out\n        /* \"#utility.yul\":8447:8866   */\n    tag_68:\n        /* \"#utility.yul\":8613:8617   */\n      0x00\n        /* \"#utility.yul\":8651:8653   */\n      0x20\n        /* \"#utility.yul\":8640:8649   */\n      dup3\n        /* \"#utility.yul\":8636:8654   */\n      add\n        /* \"#utility.yul\":8628:8654   */\n      swap1\n      pop\n        /* \"#utility.yul\":8700:8709   */\n      dup2\n        /* \"#utility.yul\":8694:8698   */\n      dup2\n        /* \"#utility.yul\":8690:8710   */\n      sub\n        /* \"#utility.yul\":8686:8687   */\n      0x00\n        /* \"#utility.yul\":8675:8684   */\n      dup4\n        /* \"#utility.yul\":8671:8688   */\n      add\n        /* \"#utility.yul\":8664:8711   */\n      mstore\n        /* \"#utility.yul\":8728:8859   */\n      tag_205\n        /* \"#utility.yul\":8854:8858   */\n      dup2\n        /* \"#utility.yul\":8728:8859   */\n      tag_113\n      jump\t// in\n    tag_205:\n        /* \"#utility.yul\":8720:8859   */\n      swap1\n      pop\n        /* \"#utility.yul\":8447:8866   */\n      swap2\n      swap1\n      pop\n      jump\t// out\n        /* \"#utility.yul\":8872:9102   */\n    tag_114:\n        /* \"#utility.yul\":9012:9046   */\n      0x4f6e6c7920746865206973737565722063616e207265766f6b65207468697320\n        /* \"#utility.yul\":9008:9009   */\n      0x00\n        /* \"#utility.yul\":9000:9006   */\n      dup3\n        /* \"#utility.yul\":8996:9010   */\n      add\n        /* \"#utility.yul\":8989:9047   */\n      mstore\n        /* \"#utility.yul\":9081:9094   */\n      0x6365727469666963617465000000000000000000000000000000000000000000\n        /* \"#utility.yul\":9076:9078   */\n      0x20\n        /* \"#utility.yul\":9068:9074   */\n      dup3\n        /* \"#utility.yul\":9064:9079   */\n      add\n        /* \"#utility.yul\":9057:9095   */\n      mstore\n        /* \"#utility.yul\":8872:9102   */\n      pop\n      jump\t// out\n        /* \"#utility.yul\":9108:9474   */\n    tag_115:\n        /* \"#utility.yul\":9250:9253   */\n      0x00\n        /* \"#utility.yul\":9271:9338   */\n      tag_208\n        /* \"#utility.yul\":9335:9337   */\n      0x2b\n        /* \"#utility.yul\":9330:9333   */\n      dup4\n        /* \"#utility.yul\":9271:9338   */\n      tag_96\n      jump\t// in\n    tag_208:\n        /* \"#utility.yul\":9264:9338   */\n      swap2\n      pop\n        /* \"#utility.yul\":9347:9440   */\n      tag_209\n        /* \"#utility.yul\":9436:9439   */\n      dup3\n        /* \"#utility.yul\":9347:9440   */\n      tag_114\n      jump\t// in\n    tag_209:\n        /* \"#utility.yul\":9465:9467   */\n      0x40\n        /* \"#utility.yul\":9460:9463   */\n      dup3\n        /* \"#utility.yul\":9456:9468   */\n      add\n        /* \"#utility.yul\":9449:9468   */\n      swap1\n      pop\n        /* \"#utility.yul\":9108:9474   */\n      swap2\n      swap1\n      pop\n      jump\t// out\n        /* \"#utility.yul\":9480:9899   */\n    tag_71:\n        /* \"#utility.yul\":9646:9650   */\n      0x00\n        /* \"#utility.yul\":9684:9686   */\n      0x20\n        /* \"#utility.yul\":9673:9682   */\n      dup3\n        /* \"#utility.yul\":9669:9687   */\n      add\n        /* \"#utility.yul\":9661:9687   */\n      swap1\n      pop\n        /* \"#utility.yul\":9733:9742   */\n      dup2\n        /* \"#utility.yul\":9727:9731   */\n      dup2\n        /* \"#utility.yul\":9723:9743   */\n      sub\n        /* \"#utility.yul\":9719:9720   */\n      0x00\n        /* \"#utility.yul\":9708:9717   */\n      dup4\n        /* \"#utility.yul\":9704:9721   */\n      add\n        /* \"#utility.yul\":9697:9744   */\n      mstore\n        /* \"#utility.yul\":9761:9892   */\n      tag_211\n        /* \"#utility.yul\":9887:9891   */\n      dup2\n        /* \"#utility.yul\":9761:9892   */\n      tag_115\n      jump\t// in\n    tag_211:\n        /* \"#utility.yul\":9753:9892   */\n      swap1\n      pop\n        /* \"#utility.yul\":9480:9899   */\n      swap2\n      swap1\n      pop\n      jump\t// out\n        /* \"#utility.yul\":9905:10150   */\n    tag_116:\n        /* \"#utility.yul\":10045:10079   */\n      0x4f6e6c7920526f6f74204341206f7220616e20696e7465726d65646961746520\n        /* \"#utility.yul\":10041:10042   */\n      0x00\n        /* \"#utility.yul\":10033:10039   */\n      dup3\n        /* \"#utility.yul\":10029:10043   */\n      add\n        /* \"#utility.yul\":10022:10080   */\n      mstore\n        /* \"#utility.yul\":10114:10142   */\n      0x43412063616e20706572666f726d207468697320616374696f6e000000000000\n        /* \"#utility.yul\":10109:10111   */\n      0x20\n        /* \"#utility.yul\":10101:10107   */\n      dup3\n        /* \"#utility.yul\":10097:10112   */\n      add\n        /* \"#utility.yul\":10090:10143   */\n      mstore\n        /* \"#utility.yul\":9905:10150   */\n      pop\n      jump\t// out\n        /* \"#utility.yul\":10156:10522   */\n    tag_117:\n        /* \"#utility.yul\":10298:10301   */\n      0x00\n        /* \"#utility.yul\":10319:10386   */\n      tag_214\n        /* \"#utility.yul\":10383:10385   */\n      0x3a\n        /* \"#utility.yul\":10378:10381   */\n      dup4\n        /* \"#utility.yul\":10319:10386   */\n      tag_96\n      jump\t// in\n    tag_214:\n        /* \"#utility.yul\":10312:10386   */\n      swap2\n      pop\n        /* \"#utility.yul\":10395:10488   */\n      tag_215\n        /* \"#utility.yul\":10484:10487   */\n      dup3\n        /* \"#utility.yul\":10395:10488   */\n      tag_116\n      jump\t// in\n    tag_215:\n        /* \"#utility.yul\":10513:10515   */\n      0x40\n        /* \"#utility.yul\":10508:10511   */\n      dup3\n        /* \"#utility.yul\":10504:10516   */\n      add\n        /* \"#utility.yul\":10497:10516   */\n      swap1\n      pop\n        /* \"#utility.yul\":10156:10522   */\n      swap2\n      swap1\n      pop\n      jump\t// out\n        /* \"#utility.yul\":10528:10947   */\n    tag_76:\n        /* \"#utility.yul\":10694:10698   */\n      0x00\n        /* \"#utility.yul\":10732:10734   */\n      0x20\n        /* \"#utility.yul\":10721:10730   */\n      dup3\n        /* \"#utility.yul\":10717:10735   */\n      add\n        /* \"#utility.yul\":10709:10735   */\n      swap1\n      pop\n        /* \"#utility.yul\":10781:10790   */\n      dup2\n        /* \"#utility.yul\":10775:10779   */\n      dup2\n        /* \"#utility.yul\":10771:10791   */\n      sub\n        /* \"#utility.yul\":10767:10768   */\n      0x00\n        /* \"#utility.yul\":10756:10765   */\n      dup4\n        /* \"#utility.yul\":10752:10769   */\n      add\n        /* \"#utility.yul\":10745:10792   */\n      mstore\n        /* \"#utility.yul\":10809:10940   */\n      tag_217\n        /* \"#utility.yul\":10935:10939   */\n      dup2\n        /* \"#utility.yul\":10809:10940   */\n      tag_117\n      jump\t// in\n    tag_217:\n        /* \"#utility.yul\":10801:10940   */\n      swap1\n      pop\n        /* \"#utility.yul\":10528:10947   */\n      swap2\n      swap1\n      pop\n      jump\t// out\n        /* \"#utility.yul\":10953:11117   */\n    tag_118:\n        /* \"#utility.yul\":11093:11109   */\n      0x496e76616c696420636572744964000000000000000000000000000000000000\n        /* \"#utility.yul\":11089:11090   */\n      0x00\n        /* \"#utility.yul\":11081:11087   */\n      dup3\n        /* \"#utility.yul\":11077:11091   */\n      add\n        /* \"#utility.yul\":11070:11110   */\n      mstore\n        /* \"#utility.yul\":10953:11117   */\n      pop\n      jump\t// out\n        /* \"#utility.yul\":11123:11489   */\n    tag_119:\n        /* \"#utility.yul\":11265:11268   */\n      0x00\n        /* \"#utility.yul\":11286:11353   */\n      tag_220\n        /* \"#utility.yul\":11350:11352   */\n      0x0e\n        /* \"#utility.yul\":11345:11348   */\n      dup4\n        /* \"#utility.yul\":11286:11353   */\n      tag_96\n      jump\t// in\n    tag_220:\n        /* \"#utility.yul\":11279:11353   */\n      swap2\n      pop\n        /* \"#utility.yul\":11362:11455   */\n      tag_221\n        /* \"#utility.yul\":11451:11454   */\n      dup3\n        /* \"#utility.yul\":11362:11455   */\n      tag_118\n      jump\t// in\n    tag_221:\n        /* \"#utility.yul\":11480:11482   */\n      0x20\n        /* \"#utility.yul\":11475:11478   */\n      dup3\n        /* \"#utility.yul\":11471:11483   */\n      add\n        /* \"#utility.yul\":11464:11483   */\n      swap1\n      pop\n        /* \"#utility.yul\":11123:11489   */\n      swap2\n      swap1\n      pop\n      jump\t// out\n        /* \"#utility.yul\":11495:11914   */\n    tag_82:\n        /* \"#utility.yul\":11661:11665   */\n      0x00\n        /* \"#utility.yul\":11699:11701   */\n      0x20\n        /* \"#utility.yul\":11688:11697   */\n      dup3\n        /* \"#utility.yul\":11684:11702   */\n      add\n        /* \"#utility.yul\":11676:11702   */\n      swap1\n      pop\n        /* \"#utility.yul\":11748:11757   */\n      dup2\n        /* \"#utility.yul\":11742:11746   */\n      dup2\n        /* \"#utility.yul\":11738:11758   */\n      sub\n        /* \"#utility.yul\":11734:11735   */\n      0x00\n        /* \"#utility.yul\":11723:11732   */\n      dup4\n        /* \"#utility.yul\":11719:11736   */\n      add\n        /* \"#utility.yul\":11712:11759   */\n      mstore\n        /* \"#utility.yul\":11776:11907   */\n      tag_223\n        /* \"#utility.yul\":11902:11906   */\n      dup2\n        /* \"#utility.yul\":11776:11907   */\n      tag_119\n      jump\t// in\n    tag_223:\n        /* \"#utility.yul\":11768:11907   */\n      swap1\n      pop\n        /* \"#utility.yul\":11495:11914   */\n      swap2\n      swap1\n      pop\n      jump\t// out\n        /* \"#utility.yul\":11920:12096   */\n    tag_120:\n        /* \"#utility.yul\":12060:12088   */\n      0x436572746966696361746520616c726561647920657869737473000000000000\n        /* \"#utility.yul\":12056:12057   */\n      0x00\n        /* \"#utility.yul\":12048:12054   */\n      dup3\n        /* \"#utility.yul\":12044:12058   */\n      add\n        /* \"#utility.yul\":12037:12089   */\n      mstore\n        /* \"#utility.yul\":11920:12096   */\n      pop\n      jump\t// out\n        /* \"#utility.yul\":12102:12468   */\n    tag_121:\n        /* \"#utility.yul\":12244:12247   */\n      0x00\n        /* \"#utility.yul\":12265:12332   */\n      tag_226\n        /* \"#utility.yul\":12329:12331   */\n      0x1a\n        /* \"#utility.yul\":12324:12327   */\n      dup4\n        /* \"#utility.yul\":12265:12332   */\n      tag_96\n      jump\t// in\n    tag_226:\n        /* \"#utility.yul\":12258:12332   */\n      swap2\n      pop\n        /* \"#utility.yul\":12341:12434   */\n      tag_227\n        /* \"#utility.yul\":12430:12433   */\n      dup3\n        /* \"#utility.yul\":12341:12434   */\n      tag_120\n      jump\t// in\n    tag_227:\n        /* \"#utility.yul\":12459:12461   */\n      0x20\n        /* \"#utility.yul\":12454:12457   */\n      dup3\n        /* \"#utility.yul\":12450:12462   */\n      add\n        /* \"#utility.yul\":12443:12462   */\n      swap1\n      pop\n        /* \"#utility.yul\":12102:12468   */\n      swap2\n      swap1\n      pop\n      jump\t// out\n        /* \"#utility.yul\":12474:12893   */\n    tag_85:\n        /* \"#utility.yul\":12640:12644   */\n      0x00\n        /* \"#utility.yul\":12678:12680   */\n      0x20\n        /* \"#utility.yul\":12667:12676   */\n      dup3\n        /* \"#utility.yul\":12663:12681   */\n      add\n        /* \"#utility.yul\":12655:12681   */\n      swap1\n      pop\n        /* \"#utility.yul\":12727:12736   */\n      dup2\n        /* \"#utility.yul\":12721:12725   */\n      dup2\n        /* \"#utility.yul\":12717:12737   */\n      sub\n        /* \"#utility.yul\":12713:12714   */\n      0x00\n        /* \"#utility.yul\":12702:12711   */\n      dup4\n        /* \"#utility.yul\":12698:12715   */\n      add\n        /* \"#utility.yul\":12691:12738   */\n      mstore\n        /* \"#utility.yul\":12755:12886   */\n      tag_229\n        /* \"#utility.yul\":12881:12885   */\n      dup2\n        /* \"#utility.yul\":12755:12886   */\n      tag_121\n      jump\t// in\n    tag_229:\n        /* \"#utility.yul\":12747:12886   */\n      swap1\n      pop\n        /* \"#utility.yul\":12474:12893   */\n      swap2\n      swap1\n      pop\n      jump\t// out\n        /* \"#utility.yul\":12899:13121   */\n    tag_87:\n        /* \"#utility.yul\":12992:12996   */\n      0x00\n        /* \"#utility.yul\":13030:13032   */\n      0x20\n        /* \"#utility.yul\":13019:13028   */\n      dup3\n        /* \"#utility.yul\":13015:13033   */\n      add\n        /* \"#utility.yul\":13007:13033   */\n      swap1\n      pop\n        /* \"#utility.yul\":13043:13114   */\n      tag_231\n        /* \"#utility.yul\":13111:13112   */\n      0x00\n        /* \"#utility.yul\":13100:13109   */\n      dup4\n        /* \"#utility.yul\":13096:13113   */\n      add\n        /* \"#utility.yul\":13087:13093   */\n      dup5\n        /* \"#utility.yul\":13043:13114   */\n      tag_105\n      jump\t// in\n    tag_231:\n        /* \"#utility.yul\":12899:13121   */\n      swap3\n      swap2\n      pop\n      pop\n      jump\t// out\n\n    auxdata: 0xa264697066735822122055166b0550086223ad085cf56e242c6d48fe7636a795186a25de7b177e6f1cba64736f6c634300081a0033\n}\n",
				"bytecode": {
					"linkReferences": {},
					"object": "60806040526040518060400160405280600781526020017f47534d41204349000000000000000000000000000000000000000000000000008152505f908161004791906102d3565b50348015610053575f80fd5b503360015f6101000a81548173ffffffffffffffffffffffffffffffffffffffff021916908373ffffffffffffffffffffffffffffffffffffffff1602179055506103a2565b5f81519050919050565b7f4e487b71000000000000000000000000000000000000000000000000000000005f52604160045260245ffd5b7f4e487b71000000000000000000000000000000000000000000000000000000005f52602260045260245ffd5b5f600282049050600182168061011457607f821691505b602082108103610127576101266100d0565b5b50919050565b5f819050815f5260205f209050919050565b5f6020601f8301049050919050565b5f82821b905092915050565b5f600883026101897fffffffffffffffffffffffffffffffffffffffffffffffffffffffffffffffff8261014e565b610193868361014e565b95508019841693508086168417925050509392505050565b5f819050919050565b5f819050919050565b5f6101d76101d26101cd846101ab565b6101b4565b6101ab565b9050919050565b5f819050919050565b6101f0836101bd565b6102046101fc826101de565b84845461015a565b825550505050565b5f90565b61021861020c565b6102238184846101e7565b505050565b5b818110156102465761023b5f82610210565b600181019050610229565b5050565b601f82111561028b5761025c8161012d565b6102658461013f565b81016020851015610274578190505b6102886102808561013f565b830182610228565b50505b505050565b5f82821c905092915050565b5f6102ab5f1984600802610290565b1980831691505092915050565b5f6102c3838361029c565b9150826002028217905092915050565b6102dc82610099565b67ffffffffffffffff8111156102f5576102f46100a3565b5b6102ff82546100fd565b61030a82828561024a565b5f60209050601f83116001811461033b575f8415610329578287015190505b61033385826102b8565b86555061039a565b601f1984166103498661012d565b5f5b828110156103705784890151825560018201915060208501945060208101905061034b565b8683101561038d5784890151610389601f89168261029c565b8355505b6001600288020188555050505b505050505050565b6111d2806103af5f395ff3fe608060405234801561000f575f80fd5b5060043610610086575f3560e01c80638dddddd6116100595780638dddddd614610129578063aed681ed14610145578063c6cbc52a14610163578063f4d3cbfc1461017f57610086565b8063176b95d61461008a5780633653759f146100a6578063585fc0d2146100c4578063742f0688146100f4575b5f80fd5b6100a4600480360381019061009f9190610baa565b61019b565b005b6100ae610332565b6040516100bb9190610c45565b60405180910390f35b6100de60048036038101906100d99190610baa565b6103bd565b6040516100eb9190610c7f565b60405180910390f35b61010e60048036038101906101099190610ccb565b6103da565b60405161012096959493929190610d14565b60405180910390f35b610143600480360381019061013e9190610baa565b61046a565b005b61014d610602565b60405161015a9190610d73565b60405180910390f35b61017d60048036038101906101789190610ccb565b610627565b005b61019960048036038101906101949190610d8c565b61079d565b005b60015f9054906101000a900473ffffffffffffffffffffffffffffffffffffffff1673ffffffffffffffffffffffffffffffffffffffff163373ffffffffffffffffffffffffffffffffffffffff161461022a576040517f08c379a000000000000000000000000000000000000000000000000000000000815260040161022190610e4c565b60405180910390fd5b5f73ffffffffffffffffffffffffffffffffffffffff168173ffffffffffffffffffffffffffffffffffffffff1603610298576040517f08c379a000000000000000000000000000000000000000000000000000000000815260040161028f90610eb4565b60405180910390fd5b5f60025f8373ffffffffffffffffffffffffffffffffffffffff1673ffffffffffffffffffffffffffffffffffffffff1681526020019081526020015f205f6101000a81548160ff0219169083151502179055508073ffffffffffffffffffffffffffffffffffffffff167fadf2af09325cf4c8ba758206fd1204bdd029904cef4e2dfb754507e60639552260405160405180910390a250565b5f805461033e90610eff565b80601f016020809104026020016040519081016040528092919081815260200182805461036a90610eff565b80156103b55780601f1061038c576101008083540402835291602001916103b5565b820191905f5260205f20905b81548152906001019060200180831161039857829003601f168201915b505050505081565b6002602052805f5260405f205f915054906101000a900460ff1681565b6003602052805f5260405f205f91509050805f015490806001015f9054906101000a900473ffffffffffffffffffffffffffffffffffffffff1690806002015490806003015f9054906101000a900473ffffffffffffffffffffffffffffffffffffffff16908060030160149054906101000a900460ff16908060030160159054906101000a900460ff16905086565b60015f9054906101000a900473ffffffffffffffffffffffffffffffffffffffff1673ffffffffffffffffffffffffffffffffffffffff163373ffffffffffffffffffffffffffffffffffffffff16146104f9576040517f08c379a00000000000000000000000000000000000000000000000000000000081526004016104f090610e4c565b60405180910390fd5b5f73ffffffffffffffffffffffffffffffffffffffff168173ffffffffffffffffffffffffffffffffffffffff1603610567576040517f08c379a000000000000000000000000000000000000000000000000000000000815260040161055e90610eb4565b60405180910390fd5b600160025f8373ffffffffffffffffffffffffffffffffffffffff1673ffffffffffffffffffffffffffffffffffffffff1681526020019081526020015f205f6101000a81548160ff0219169083151502179055508073ffffffffffffffffffffffffffffffffffffffff167feb64edb8f6e1a474cc6d178b5374bb558788abb87c624b0626298702754ecec060405160405180910390a250565b60015f9054906101000a900473ffffffffffffffffffffffffffffffffffffffff1681565b60035f8281526020019081526020015f2060030160149054906101000a900460ff16610688576040517f08c379a000000000000000000000000000000000000000000000000000000000815260040161067f90610f79565b60405180910390fd5b60035f8281526020019081526020015f206003015f9054906101000a900473ffffffffffffffffffffffffffffffffffffffff1673ffffffffffffffffffffffffffffffffffffffff163373ffffffffffffffffffffffffffffffffffffffff1614610729576040517f08c379a000000000000000000000000000000000000000000000000000000000815260040161072090611007565b60405180910390fd5b600160035f8381526020019081526020015f2060030160156101000a81548160ff0219169083151502179055503373ffffffffffffffffffffffffffffffffffffffff16817f1dbd7f0554a6447214abb6405781d5ee119037a7024fcb7fffd542c3c12cd77660405160405180910390a350565b60015f9054906101000a900473ffffffffffffffffffffffffffffffffffffffff1673ffffffffffffffffffffffffffffffffffffffff163373ffffffffffffffffffffffffffffffffffffffff16148061083e575060025f3373ffffffffffffffffffffffffffffffffffffffff1673ffffffffffffffffffffffffffffffffffffffff1681526020019081526020015f205f9054906101000a900460ff165b61087d576040517f08c379a000000000000000000000000000000000000000000000000000000000815260040161087490611095565b60405180910390fd5b5f73ffffffffffffffffffffffffffffffffffffffff168273ffffffffffffffffffffffffffffffffffffffff16036108eb576040517f08c379a00000000000000000000000000000000000000000000000000000000081526004016108e290610eb4565b60405180910390fd5b5f801b830361092f576040517f08c379a0000000000000000000000000000000000000000000000000000000008152600401610926906110fd565b60405180910390fd5b60035f8481526020019081526020015f2060030160149054906101000a900460ff1615610991576040517f08c379a000000000000000000000000000000000000000000000000000000000815260040161098890611165565b60405180910390fd5b6040518060c001604052808481526020018373ffffffffffffffffffffffffffffffffffffffff1681526020018281526020013373ffffffffffffffffffffffffffffffffffffffff1681526020016001151581526020015f151581525060035f8581526020019081526020015f205f820151815f01556020820151816001015f6101000a81548173ffffffffffffffffffffffffffffffffffffffff021916908373ffffffffffffffffffffffffffffffffffffffff160217905550604082015181600201556060820151816003015f6101000a81548173ffffffffffffffffffffffffffffffffffffffff021916908373ffffffffffffffffffffffffffffffffffffffff16021790555060808201518160030160146101000a81548160ff02191690831515021790555060a08201518160030160156101000a81548160ff0219169083151502179055509050503373ffffffffffffffffffffffffffffffffffffffff168273ffffffffffffffffffffffffffffffffffffffff16847f828cac8baaa59e7df23f9a505eb54f60ee6475699a0f0c7e00f342d345cb5dff84604051610b3f9190611183565b60405180910390a4505050565b5f80fd5b5f73ffffffffffffffffffffffffffffffffffffffff82169050919050565b5f610b7982610b50565b9050919050565b610b8981610b6f565b8114610b93575f80fd5b50565b5f81359050610ba481610b80565b92915050565b5f60208284031215610bbf57610bbe610b4c565b5b5f610bcc84828501610b96565b91505092915050565b5f81519050919050565b5f82825260208201905092915050565b8281835e5f83830152505050565b5f601f19601f8301169050919050565b5f610c1782610bd5565b610c218185610bdf565b9350610c31818560208601610bef565b610c3a81610bfd565b840191505092915050565b5f6020820190508181035f830152610c5d8184610c0d565b905092915050565b5f8115159050919050565b610c7981610c65565b82525050565b5f602082019050610c925f830184610c70565b92915050565b5f819050919050565b610caa81610c98565b8114610cb4575f80fd5b50565b5f81359050610cc581610ca1565b92915050565b5f60208284031215610ce057610cdf610b4c565b5b5f610ced84828501610cb7565b91505092915050565b610cff81610c98565b82525050565b610d0e81610b6f565b82525050565b5f60c082019050610d275f830189610cf6565b610d346020830188610d05565b610d416040830187610cf6565b610d4e6060830186610d05565b610d5b6080830185610c70565b610d6860a0830184610c70565b979650505050505050565b5f602082019050610d865f830184610d05565b92915050565b5f805f60608486031215610da357610da2610b4c565b5b5f610db086828701610cb7565b9350506020610dc186828701610b96565b9250506040610dd286828701610cb7565b9150509250925092565b7f4f6e6c792047534d412043492063616e20706572666f726d20746869732061635f8201527f74696f6e00000000000000000000000000000000000000000000000000000000602082015250565b5f610e36602483610bdf565b9150610e4182610ddc565b604082019050919050565b5f6020820190508181035f830152610e6381610e2a565b9050919050565b7f496e76616c6964206164647265737300000000000000000000000000000000005f82015250565b5f610e9e600f83610bdf565b9150610ea982610e6a565b602082019050919050565b5f6020820190508181035f830152610ecb81610e92565b9050919050565b7f4e487b71000000000000000000000000000000000000000000000000000000005f52602260045260245ffd5b5f6002820490506001821680610f1657607f821691505b602082108103610f2957610f28610ed2565b5b50919050565b7f436572746966696361746520646f6573206e6f742065786973740000000000005f82015250565b5f610f63601a83610bdf565b9150610f6e82610f2f565b602082019050919050565b5f6020820190508181035f830152610f9081610f57565b9050919050565b7f4f6e6c7920746865206973737565722063616e207265766f6b652074686973205f8201527f6365727469666963617465000000000000000000000000000000000000000000602082015250565b5f610ff1602b83610bdf565b9150610ffc82610f97565b604082019050919050565b5f6020820190508181035f83015261101e81610fe5565b9050919050565b7f4f6e6c7920526f6f74204341206f7220616e20696e7465726d656469617465205f8201527f43412063616e20706572666f726d207468697320616374696f6e000000000000602082015250565b5f61107f603a83610bdf565b915061108a82611025565b604082019050919050565b5f6020820190508181035f8301526110ac81611073565b9050919050565b7f496e76616c6964206365727449640000000000000000000000000000000000005f82015250565b5f6110e7600e83610bdf565b91506110f2826110b3565b602082019050919050565b5f6020820190508181035f830152611114816110db565b9050919050565b7f436572746966696361746520616c7265616479206578697374730000000000005f82015250565b5f61114f601a83610bdf565b915061115a8261111b565b602082019050919050565b5f6020820190508181035f83015261117c81611143565b9050919050565b5f6020820190506111965f830184610cf6565b9291505056fea264697066735822122055166b0550086223ad085cf56e242c6d48fe7636a795186a25de7b177e6f1cba64736f6c634300081a0033",
					"opcodes": "PUSH1 0x80 PUSH1 0x40 MSTORE PUSH1 0x40 MLOAD DUP1 PUSH1 0x40 ADD PUSH1 0x40 MSTORE DUP1 PUSH1 0x7 DUP2 MSTORE PUSH1 0x20 ADD PUSH32 0x47534D4120434900000000000000000000000000000000000000000000000000 DUP2 MSTORE POP PUSH0 SWAP1 DUP2 PUSH2 0x47 SWAP2 SWAP1 PUSH2 0x2D3 JUMP JUMPDEST POP CALLVALUE DUP1 ISZERO PUSH2 0x53 JUMPI PUSH0 DUP1 REVERT JUMPDEST POP CALLER PUSH1 0x1 PUSH0 PUSH2 0x100 EXP DUP2 SLOAD DUP2 PUSH20 0xFFFFFFFFFFFFFFFFFFFFFFFFFFFFFFFFFFFFFFFF MUL NOT AND SWAP1 DUP4 PUSH20 0xFFFFFFFFFFFFFFFFFFFFFFFFFFFFFFFFFFFFFFFF AND MUL OR SWAP1 SSTORE POP PUSH2 0x3A2 JUMP JUMPDEST PUSH0 DUP2 MLOAD SWAP1 POP SWAP2 SWAP1 POP JUMP JUMPDEST PUSH32 0x4E487B7100000000000000000000000000000000000000000000000000000000 PUSH0 MSTORE PUSH1 0x41 PUSH1 0x4 MSTORE PUSH1 0x24 PUSH0 REVERT JUMPDEST PUSH32 0x4E487B7100000000000000000000000000000000000000000000000000000000 PUSH0 MSTORE PUSH1 0x22 PUSH1 0x4 MSTORE PUSH1 0x24 PUSH0 REVERT JUMPDEST PUSH0 PUSH1 0x2 DUP3 DIV SWAP1 POP PUSH1 0x1 DUP3 AND DUP1 PUSH2 0x114 JUMPI PUSH1 0x7F DUP3 AND SWAP2 POP JUMPDEST PUSH1 0x20 DUP3 LT DUP2 SUB PUSH2 0x127 JUMPI PUSH2 0x126 PUSH2 0xD0 JUMP JUMPDEST JUMPDEST POP SWAP2 SWAP1 POP JUMP JUMPDEST PUSH0 DUP2 SWAP1 POP DUP2 PUSH0 MSTORE PUSH1 0x20 PUSH0 KECCAK256 SWAP1 POP SWAP2 SWAP1 POP JUMP JUMPDEST PUSH0 PUSH1 0x20 PUSH1 0x1F DUP4 ADD DIV SWAP1 POP SWAP2 SWAP1 POP JUMP JUMPDEST PUSH0 DUP3 DUP3 SHL SWAP1 POP SWAP3 SWAP2 POP POP JUMP JUMPDEST PUSH0 PUSH1 0x8 DUP4 MUL PUSH2 0x189 PUSH32 0xFFFFFFFFFFFFFFFFFFFFFFFFFFFFFFFFFFFFFFFFFFFFFFFFFFFFFFFFFFFFFFFF DUP3 PUSH2 0x14E JUMP JUMPDEST PUSH2 0x193 DUP7 DUP4 PUSH2 0x14E JUMP JUMPDEST SWAP6 POP DUP1 NOT DUP5 AND SWAP4 POP DUP1 DUP7 AND DUP5 OR SWAP3 POP POP POP SWAP4 SWAP3 POP POP POP JUMP JUMPDEST PUSH0 DUP2 SWAP1 POP SWAP2 SWAP1 POP JUMP JUMPDEST PUSH0 DUP2 SWAP1 POP SWAP2 SWAP1 POP JUMP JUMPDEST PUSH0 PUSH2 0x1D7 PUSH2 0x1D2 PUSH2 0x1CD DUP5 PUSH2 0x1AB JUMP JUMPDEST PUSH2 0x1B4 JUMP JUMPDEST PUSH2 0x1AB JUMP JUMPDEST SWAP1 POP SWAP2 SWAP1 POP JUMP JUMPDEST PUSH0 DUP2 SWAP1 POP SWAP2 SWAP1 POP JUMP JUMPDEST PUSH2 0x1F0 DUP4 PUSH2 0x1BD JUMP JUMPDEST PUSH2 0x204 PUSH2 0x1FC DUP3 PUSH2 0x1DE JUMP JUMPDEST DUP5 DUP5 SLOAD PUSH2 0x15A JUMP JUMPDEST DUP3 SSTORE POP POP POP POP JUMP JUMPDEST PUSH0 SWAP1 JUMP JUMPDEST PUSH2 0x218 PUSH2 0x20C JUMP JUMPDEST PUSH2 0x223 DUP2 DUP5 DUP5 PUSH2 0x1E7 JUMP JUMPDEST POP POP POP JUMP JUMPDEST JUMPDEST DUP2 DUP2 LT ISZERO PUSH2 0x246 JUMPI PUSH2 0x23B PUSH0 DUP3 PUSH2 0x210 JUMP JUMPDEST PUSH1 0x1 DUP2 ADD SWAP1 POP PUSH2 0x229 JUMP JUMPDEST POP POP JUMP JUMPDEST PUSH1 0x1F DUP3 GT ISZERO PUSH2 0x28B JUMPI PUSH2 0x25C DUP2 PUSH2 0x12D JUMP JUMPDEST PUSH2 0x265 DUP5 PUSH2 0x13F JUMP JUMPDEST DUP2 ADD PUSH1 0x20 DUP6 LT ISZERO PUSH2 0x274 JUMPI DUP2 SWAP1 POP JUMPDEST PUSH2 0x288 PUSH2 0x280 DUP6 PUSH2 0x13F JUMP JUMPDEST DUP4 ADD DUP3 PUSH2 0x228 JUMP JUMPDEST POP POP JUMPDEST POP POP POP JUMP JUMPDEST PUSH0 DUP3 DUP3 SHR SWAP1 POP SWAP3 SWAP2 POP POP JUMP JUMPDEST PUSH0 PUSH2 0x2AB PUSH0 NOT DUP5 PUSH1 0x8 MUL PUSH2 0x290 JUMP JUMPDEST NOT DUP1 DUP4 AND SWAP2 POP POP SWAP3 SWAP2 POP POP JUMP JUMPDEST PUSH0 PUSH2 0x2C3 DUP4 DUP4 PUSH2 0x29C JUMP JUMPDEST SWAP2 POP DUP3 PUSH1 0x2 MUL DUP3 OR SWAP1 POP SWAP3 SWAP2 POP POP JUMP JUMPDEST PUSH2 0x2DC DUP3 PUSH2 0x99 JUMP JUMPDEST PUSH8 0xFFFFFFFFFFFFFFFF DUP2 GT ISZERO PUSH2 0x2F5 JUMPI PUSH2 0x2F4 PUSH2 0xA3 JUMP JUMPDEST JUMPDEST PUSH2 0x2FF DUP3 SLOAD PUSH2 0xFD JUMP JUMPDEST PUSH2 0x30A DUP3 DUP3 DUP6 PUSH2 0x24A JUMP JUMPDEST PUSH0 PUSH1 0x20 SWAP1 POP PUSH1 0x1F DUP4 GT PUSH1 0x1 DUP2 EQ PUSH2 0x33B JUMPI PUSH0 DUP5 ISZERO PUSH2 0x329 JUMPI DUP3 DUP8 ADD MLOAD SWAP1 POP JUMPDEST PUSH2 0x333 DUP6 DUP3 PUSH2 0x2B8 JUMP JUMPDEST DUP7 SSTORE POP PUSH2 0x39A JUMP JUMPDEST PUSH1 0x1F NOT DUP5 AND PUSH2 0x349 DUP7 PUSH2 0x12D JUMP JUMPDEST PUSH0 JUMPDEST DUP3 DUP2 LT ISZERO PUSH2 0x370 JUMPI DUP5 DUP10 ADD MLOAD DUP3 SSTORE PUSH1 0x1 DUP3 ADD SWAP2 POP PUSH1 0x20 DUP6 ADD SWAP5 POP PUSH1 0x20 DUP2 ADD SWAP1 POP PUSH2 0x34B JUMP JUMPDEST DUP7 DUP4 LT ISZERO PUSH2 0x38D JUMPI DUP5 DUP10 ADD MLOAD PUSH2 0x389 PUSH1 0x1F DUP10 AND DUP3 PUSH2 0x29C JUMP JUMPDEST DUP4 SSTORE POP JUMPDEST PUSH1 0x1 PUSH1 0x2 DUP9 MUL ADD DUP9 SSTORE POP POP POP JUMPDEST POP POP POP POP POP POP JUMP JUMPDEST PUSH2 0x11D2 DUP1 PUSH2 0x3AF PUSH0 CODECOPY PUSH0 RETURN INVALID PUSH1 0x80 PUSH1 0x40 MSTORE CALLVALUE DUP1 ISZERO PUSH2 0xF JUMPI PUSH0 DUP1 REVERT JUMPDEST POP PUSH1 0x4 CALLDATASIZE LT PUSH2 0x86 JUMPI PUSH0 CALLDATALOAD PUSH1 0xE0 SHR DUP1 PUSH4 0x8DDDDDD6 GT PUSH2 0x59 JUMPI DUP1 PUSH4 0x8DDDDDD6 EQ PUSH2 0x129 JUMPI DUP1 PUSH4 0xAED681ED EQ PUSH2 0x145 JUMPI DUP1 PUSH4 0xC6CBC52A EQ PUSH2 0x163 JUMPI DUP1 PUSH4 0xF4D3CBFC EQ PUSH2 0x17F JUMPI PUSH2 0x86 JUMP JUMPDEST DUP1 PUSH4 0x176B95D6 EQ PUSH2 0x8A JUMPI DUP1 PUSH4 0x3653759F EQ PUSH2 0xA6 JUMPI DUP1 PUSH4 0x585FC0D2 EQ PUSH2 0xC4 JUMPI DUP1 PUSH4 0x742F0688 EQ PUSH2 0xF4 JUMPI JUMPDEST PUSH0 DUP1 REVERT JUMPDEST PUSH2 0xA4 PUSH1 0x4 DUP1 CALLDATASIZE SUB DUP2 ADD SWAP1 PUSH2 0x9F SWAP2 SWAP1 PUSH2 0xBAA JUMP JUMPDEST PUSH2 0x19B JUMP JUMPDEST STOP JUMPDEST PUSH2 0xAE PUSH2 0x332 JUMP JUMPDEST PUSH1 0x40 MLOAD PUSH2 0xBB SWAP2 SWAP1 PUSH2 0xC45 JUMP JUMPDEST PUSH1 0x40 MLOAD DUP1 SWAP2 SUB SWAP1 RETURN JUMPDEST PUSH2 0xDE PUSH1 0x4 DUP1 CALLDATASIZE SUB DUP2 ADD SWAP1 PUSH2 0xD9 SWAP2 SWAP1 PUSH2 0xBAA JUMP JUMPDEST PUSH2 0x3BD JUMP JUMPDEST PUSH1 0x40 MLOAD PUSH2 0xEB SWAP2 SWAP1 PUSH2 0xC7F JUMP JUMPDEST PUSH1 0x40 MLOAD DUP1 SWAP2 SUB SWAP1 RETURN JUMPDEST PUSH2 0x10E PUSH1 0x4 DUP1 CALLDATASIZE SUB DUP2 ADD SWAP1 PUSH2 0x109 SWAP2 SWAP1 PUSH2 0xCCB JUMP JUMPDEST PUSH2 0x3DA JUMP JUMPDEST PUSH1 0x40 MLOAD PUSH2 0x120 SWAP7 SWAP6 SWAP5 SWAP4 SWAP3 SWAP2 SWAP1 PUSH2 0xD14 JUMP JUMPDEST PUSH1 0x40 MLOAD DUP1 SWAP2 SUB SWAP1 RETURN JUMPDEST PUSH2 0x143 PUSH1 0x4 DUP1 CALLDATASIZE SUB DUP2 ADD SWAP1 PUSH2 0x13E SWAP2 SWAP1 PUSH2 0xBAA JUMP JUMPDEST PUSH2 0x46A JUMP JUMPDEST STOP JUMPDEST PUSH2 0x14D PUSH2 0x602 JUMP JUMPDEST PUSH1 0x40 MLOAD PUSH2 0x15A SWAP2 SWAP1 PUSH2 0xD73 JUMP JUMPDEST PUSH1 0x40 MLOAD DUP1 SWAP2 SUB SWAP1 RETURN JUMPDEST PUSH2 0x17D PUSH1 0x4 DUP1 CALLDATASIZE SUB DUP2 ADD SWAP1 PUSH2 0x178 SWAP2 SWAP1 PUSH2 0xCCB JUMP JUMPDEST PUSH2 0x627 JUMP JUMPDEST STOP JUMPDEST PUSH2 0x199 PUSH1 0x4 DUP1 CALLDATASIZE SUB DUP2 ADD SWAP1 PUSH2 0x194 SWAP2 SWAP1 PUSH2 0xD8C JUMP JUMPDEST PUSH2 0x79D JUMP JUMPDEST STOP JUMPDEST PUSH1 0x1 PUSH0 SWAP1 SLOAD SWAP1 PUSH2 0x100 EXP SWAP1 DIV PUSH20 0xFFFFFFFFFFFFFFFFFFFFFFFFFFFFFFFFFFFFFFFF AND PUSH20 0xFFFFFFFFFFFFFFFFFFFFFFFFFFFFFFFFFFFFFFFF AND CALLER PUSH20 0xFFFFFFFFFFFFFFFFFFFFFFFFFFFFFFFFFFFFFFFF AND EQ PUSH2 0x22A JUMPI PUSH1 0x40 MLOAD PUSH32 0x8C379A000000000000000000000000000000000000000000000000000000000 DUP2 MSTORE PUSH1 0x4 ADD PUSH2 0x221 SWAP1 PUSH2 0xE4C JUMP JUMPDEST PUSH1 0x40 MLOAD DUP1 SWAP2 SUB SWAP1 REVERT JUMPDEST PUSH0 PUSH20 0xFFFFFFFFFFFFFFFFFFFFFFFFFFFFFFFFFFFFFFFF AND DUP2 PUSH20 0xFFFFFFFFFFFFFFFFFFFFFFFFFFFFFFFFFFFFFFFF AND SUB PUSH2 0x298 JUMPI PUSH1 0x40 MLOAD PUSH32 0x8C379A000000000000000000000000000000000000000000000000000000000 DUP2 MSTORE PUSH1 0x4 ADD PUSH2 0x28F SWAP1 PUSH2 0xEB4 JUMP JUMPDEST PUSH1 0x40 MLOAD DUP1 SWAP2 SUB SWAP1 REVERT JUMPDEST PUSH0 PUSH1 0x2 PUSH0 DUP4 PUSH20 0xFFFFFFFFFFFFFFFFFFFFFFFFFFFFFFFFFFFFFFFF AND PUSH20 0xFFFFFFFFFFFFFFFFFFFFFFFFFFFFFFFFFFFFFFFF AND DUP2 MSTORE PUSH1 0x20 ADD SWAP1 DUP2 MSTORE PUSH1 0x20 ADD PUSH0 KECCAK256 PUSH0 PUSH2 0x100 EXP DUP2 SLOAD DUP2 PUSH1 0xFF MUL NOT AND SWAP1 DUP4 ISZERO ISZERO MUL OR SWAP1 SSTORE POP DUP1 PUSH20 0xFFFFFFFFFFFFFFFFFFFFFFFFFFFFFFFFFFFFFFFF AND PUSH32 0xADF2AF09325CF4C8BA758206FD1204BDD029904CEF4E2DFB754507E606395522 PUSH1 0x40 MLOAD PUSH1 0x40 MLOAD DUP1 SWAP2 SUB SWAP1 LOG2 POP JUMP JUMPDEST PUSH0 DUP1 SLOAD PUSH2 0x33E SWAP1 PUSH2 0xEFF JUMP JUMPDEST DUP1 PUSH1 0x1F ADD PUSH1 0x20 DUP1 SWAP2 DIV MUL PUSH1 0x20 ADD PUSH1 0x40 MLOAD SWAP1 DUP2 ADD PUSH1 0x40 MSTORE DUP1 SWAP3 SWAP2 SWAP1 DUP2 DUP2 MSTORE PUSH1 0x20 ADD DUP3 DUP1 SLOAD PUSH2 0x36A SWAP1 PUSH2 0xEFF JUMP JUMPDEST DUP1 ISZERO PUSH2 0x3B5 JUMPI DUP1 PUSH1 0x1F LT PUSH2 0x38C JUMPI PUSH2 0x100 DUP1 DUP4 SLOAD DIV MUL DUP4 MSTORE SWAP2 PUSH1 0x20 ADD SWAP2 PUSH2 0x3B5 JUMP JUMPDEST DUP3 ADD SWAP2 SWAP1 PUSH0 MSTORE PUSH1 0x20 PUSH0 KECCAK256 SWAP1 JUMPDEST DUP2 SLOAD DUP2 MSTORE SWAP1 PUSH1 0x1 ADD SWAP1 PUSH1 0x20 ADD DUP1 DUP4 GT PUSH2 0x398 JUMPI DUP3 SWAP1 SUB PUSH1 0x1F AND DUP3 ADD SWAP2 JUMPDEST POP POP POP POP POP DUP2 JUMP JUMPDEST PUSH1 0x2 PUSH1 0x20 MSTORE DUP1 PUSH0 MSTORE PUSH1 0x40 PUSH0 KECCAK256 PUSH0 SWAP2 POP SLOAD SWAP1 PUSH2 0x100 EXP SWAP1 DIV PUSH1 0xFF AND DUP2 JUMP JUMPDEST PUSH1 0x3 PUSH1 0x20 MSTORE DUP1 PUSH0 MSTORE PUSH1 0x40 PUSH0 KECCAK256 PUSH0 SWAP2 POP SWAP1 POP DUP1 PUSH0 ADD SLOAD SWAP1 DUP1 PUSH1 0x1 ADD PUSH0 SWAP1 SLOAD SWAP1 PUSH2 0x100 EXP SWAP1 DIV PUSH20 0xFFFFFFFFFFFFFFFFFFFFFFFFFFFFFFFFFFFFFFFF AND SWAP1 DUP1 PUSH1 0x2 ADD SLOAD SWAP1 DUP1 PUSH1 0x3 ADD PUSH0 SWAP1 SLOAD SWAP1 PUSH2 0x100 EXP SWAP1 DIV PUSH20 0xFFFFFFFFFFFFFFFFFFFFFFFFFFFFFFFFFFFFFFFF AND SWAP1 DUP1 PUSH1 0x3 ADD PUSH1 0x14 SWAP1 SLOAD SWAP1 PUSH2 0x100 EXP SWAP1 DIV PUSH1 0xFF AND SWAP1 DUP1 PUSH1 0x3 ADD PUSH1 0x15 SWAP1 SLOAD SWAP1 PUSH2 0x100 EXP SWAP1 DIV PUSH1 0xFF AND SWAP1 POP DUP7 JUMP JUMPDEST PUSH1 0x1 PUSH0 SWAP1 SLOAD SWAP1 PUSH2 0x100 EXP SWAP1 DIV PUSH20 0xFFFFFFFFFFFFFFFFFFFFFFFFFFFFFFFFFFFFFFFF AND PUSH20 0xFFFFFFFFFFFFFFFFFFFFFFFFFFFFFFFFFFFFFFFF AND CALLER PUSH20 0xFFFFFFFFFFFFFFFFFFFFFFFFFFFFFFFFFFFFFFFF AND EQ PUSH2 0x4F9 JUMPI PUSH1 0x40 MLOAD PUSH32 0x8C379A000000000000000000000000000000000000000000000000000000000 DUP2 MSTORE PUSH1 0x4 ADD PUSH2 0x4F0 SWAP1 PUSH2 0xE4C JUMP JUMPDEST PUSH1 0x40 MLOAD DUP1 SWAP2 SUB SWAP1 REVERT JUMPDEST PUSH0 PUSH20 0xFFFFFFFFFFFFFFFFFFFFFFFFFFFFFFFFFFFFFFFF AND DUP2 PUSH20 0xFFFFFFFFFFFFFFFFFFFFFFFFFFFFFFFFFFFFFFFF AND SUB PUSH2 0x567 JUMPI PUSH1 0x40 MLOAD PUSH32 0x8C379A000000000000000000000000000000000000000000000000000000000 DUP2 MSTORE PUSH1 0x4 ADD PUSH2 0x55E SWAP1 PUSH2 0xEB4 JUMP JUMPDEST PUSH1 0x40 MLOAD DUP1 SWAP2 SUB SWAP1 REVERT JUMPDEST PUSH1 0x1 PUSH1 0x2 PUSH0 DUP4 PUSH20 0xFFFFFFFFFFFFFFFFFFFFFFFFFFFFFFFFFFFFFFFF AND PUSH20 0xFFFFFFFFFFFFFFFFFFFFFFFFFFFFFFFFFFFFFFFF AND DUP2 MSTORE PUSH1 0x20 ADD SWAP1 DUP2 MSTORE PUSH1 0x20 ADD PUSH0 KECCAK256 PUSH0 PUSH2 0x100 EXP DUP2 SLOAD DUP2 PUSH1 0xFF MUL NOT AND SWAP1 DUP4 ISZERO ISZERO MUL OR SWAP1 SSTORE POP DUP1 PUSH20 0xFFFFFFFFFFFFFFFFFFFFFFFFFFFFFFFFFFFFFFFF AND PUSH32 0xEB64EDB8F6E1A474CC6D178B5374BB558788ABB87C624B0626298702754ECEC0 PUSH1 0x40 MLOAD PUSH1 0x40 MLOAD DUP1 SWAP2 SUB SWAP1 LOG2 POP JUMP JUMPDEST PUSH1 0x1 PUSH0 SWAP1 SLOAD SWAP1 PUSH2 0x100 EXP SWAP1 DIV PUSH20 0xFFFFFFFFFFFFFFFFFFFFFFFFFFFFFFFFFFFFFFFF AND DUP2 JUMP JUMPDEST PUSH1 0x3 PUSH0 DUP3 DUP2 MSTORE PUSH1 0x20 ADD SWAP1 DUP2 MSTORE PUSH1 0x20 ADD PUSH0 KECCAK256 PUSH1 0x3 ADD PUSH1 0x14 SWAP1 SLOAD SWAP1 PUSH2 0x100 EXP SWAP1 DIV PUSH1 0xFF AND PUSH2 0x688 JUMPI PUSH1 0x40 MLOAD PUSH32 0x8C379A000000000000000000000000000000000000000000000000000000000 DUP2 MSTORE PUSH1 0x4 ADD PUSH2 0x67F SWAP1 PUSH2 0xF79 JUMP JUMPDEST PUSH1 0x40 MLOAD DUP1 SWAP2 SUB SWAP1 REVERT JUMPDEST PUSH1 0x3 PUSH0 DUP3 DUP2 MSTORE PUSH1 0x20 ADD SWAP1 DUP2 MSTORE PUSH1 0x20 ADD PUSH0 KECCAK256 PUSH1 0x3 ADD PUSH0 SWAP1 SLOAD SWAP1 PUSH2 0x100 EXP SWAP1 DIV PUSH20 0xFFFFFFFFFFFFFFFFFFFFFFFFFFFFFFFFFFFFFFFF AND PUSH20 0xFFFFFFFFFFFFFFFFFFFFFFFFFFFFFFFFFFFFFFFF AND CALLER PUSH20 0xFFFFFFFFFFFFFFFFFFFFFFFFFFFFFFFFFFFFFFFF AND EQ PUSH2 0x729 JUMPI PUSH1 0x40 MLOAD PUSH32 0x8C379A000000000000000000000000000000000000000000000000000000000 DUP2 MSTORE PUSH1 0x4 ADD PUSH2 0x720 SWAP1 PUSH2 0x1007 JUMP JUMPDEST PUSH1 0x40 MLOAD DUP1 SWAP2 SUB SWAP1 REVERT JUMPDEST PUSH1 0x1 PUSH1 0x3 PUSH0 DUP4 DUP2 MSTORE PUSH1 0x20 ADD SWAP1 DUP2 MSTORE PUSH1 0x20 ADD PUSH0 KECCAK256 PUSH1 0x3 ADD PUSH1 0x15 PUSH2 0x100 EXP DUP2 SLOAD DUP2 PUSH1 0xFF MUL NOT AND SWAP1 DUP4 ISZERO ISZERO MUL OR SWAP1 SSTORE POP CALLER PUSH20 0xFFFFFFFFFFFFFFFFFFFFFFFFFFFFFFFFFFFFFFFF AND DUP2 PUSH32 0x1DBD7F0554A6447214ABB6405781D5EE119037A7024FCB7FFFD542C3C12CD776 PUSH1 0x40 MLOAD PUSH1 0x40 MLOAD DUP1 SWAP2 SUB SWAP1 LOG3 POP JUMP JUMPDEST PUSH1 0x1 PUSH0 SWAP1 SLOAD SWAP1 PUSH2 0x100 EXP SWAP1 DIV PUSH20 0xFFFFFFFFFFFFFFFFFFFFFFFFFFFFFFFFFFFFFFFF AND PUSH20 0xFFFFFFFFFFFFFFFFFFFFFFFFFFFFFFFFFFFFFFFF AND CALLER PUSH20 0xFFFFFFFFFFFFFFFFFFFFFFFFFFFFFFFFFFFFFFFF AND EQ DUP1 PUSH2 0x83E JUMPI POP PUSH1 0x2 PUSH0 CALLER PUSH20 0xFFFFFFFFFFFFFFFFFFFFFFFFFFFFFFFFFFFFFFFF AND PUSH20 0xFFFFFFFFFFFFFFFFFFFFFFFFFFFFFFFFFFFFFFFF AND DUP2 MSTORE PUSH1 0x20 ADD SWAP1 DUP2 MSTORE PUSH1 0x20 ADD PUSH0 KECCAK256 PUSH0 SWAP1 SLOAD SWAP1 PUSH2 0x100 EXP SWAP1 DIV PUSH1 0xFF AND JUMPDEST PUSH2 0x87D JUMPI PUSH1 0x40 MLOAD PUSH32 0x8C379A000000000000000000000000000000000000000000000000000000000 DUP2 MSTORE PUSH1 0x4 ADD PUSH2 0x874 SWAP1 PUSH2 0x1095 JUMP JUMPDEST PUSH1 0x40 MLOAD DUP1 SWAP2 SUB SWAP1 REVERT JUMPDEST PUSH0 PUSH20 0xFFFFFFFFFFFFFFFFFFFFFFFFFFFFFFFFFFFFFFFF AND DUP3 PUSH20 0xFFFFFFFFFFFFFFFFFFFFFFFFFFFFFFFFFFFFFFFF AND SUB PUSH2 0x8EB JUMPI PUSH1 0x40 MLOAD PUSH32 0x8C379A000000000000000000000000000000000000000000000000000000000 DUP2 MSTORE PUSH1 0x4 ADD PUSH2 0x8E2 SWAP1 PUSH2 0xEB4 JUMP JUMPDEST PUSH1 0x40 MLOAD DUP1 SWAP2 SUB SWAP1 REVERT JUMPDEST PUSH0 DUP1 SHL DUP4 SUB PUSH2 0x92F JUMPI PUSH1 0x40 MLOAD PUSH32 0x8C379A000000000000000000000000000000000000000000000000000000000 DUP2 MSTORE PUSH1 0x4 ADD PUSH2 0x926 SWAP1 PUSH2 0x10FD JUMP JUMPDEST PUSH1 0x40 MLOAD DUP1 SWAP2 SUB SWAP1 REVERT JUMPDEST PUSH1 0x3 PUSH0 DUP5 DUP2 MSTORE PUSH1 0x20 ADD SWAP1 DUP2 MSTORE PUSH1 0x20 ADD PUSH0 KECCAK256 PUSH1 0x3 ADD PUSH1 0x14 SWAP1 SLOAD SWAP1 PUSH2 0x100 EXP SWAP1 DIV PUSH1 0xFF AND ISZERO PUSH2 0x991 JUMPI PUSH1 0x40 MLOAD PUSH32 0x8C379A000000000000000000000000000000000000000000000000000000000 DUP2 MSTORE PUSH1 0x4 ADD PUSH2 0x988 SWAP1 PUSH2 0x1165 JUMP JUMPDEST PUSH1 0x40 MLOAD DUP1 SWAP2 SUB SWAP1 REVERT JUMPDEST PUSH1 0x40 MLOAD DUP1 PUSH1 0xC0 ADD PUSH1 0x40 MSTORE DUP1 DUP5 DUP2 MSTORE PUSH1 0x20 ADD DUP4 PUSH20 0xFFFFFFFFFFFFFFFFFFFFFFFFFFFFFFFFFFFFFFFF AND DUP2 MSTORE PUSH1 0x20 ADD DUP3 DUP2 MSTORE PUSH1 0x20 ADD CALLER PUSH20 0xFFFFFFFFFFFFFFFFFFFFFFFFFFFFFFFFFFFFFFFF AND DUP2 MSTORE PUSH1 0x20 ADD PUSH1 0x1 ISZERO ISZERO DUP2 MSTORE PUSH1 0x20 ADD PUSH0 ISZERO ISZERO DUP2 MSTORE POP PUSH1 0x3 PUSH0 DUP6 DUP2 MSTORE PUSH1 0x20 ADD SWAP1 DUP2 MSTORE PUSH1 0x20 ADD PUSH0 KECCAK256 PUSH0 DUP3 ADD MLOAD DUP2 PUSH0 ADD SSTORE PUSH1 0x20 DUP3 ADD MLOAD DUP2 PUSH1 0x1 ADD PUSH0 PUSH2 0x100 EXP DUP2 SLOAD DUP2 PUSH20 0xFFFFFFFFFFFFFFFFFFFFFFFFFFFFFFFFFFFFFFFF MUL NOT AND SWAP1 DUP4 PUSH20 0xFFFFFFFFFFFFFFFFFFFFFFFFFFFFFFFFFFFFFFFF AND MUL OR SWAP1 SSTORE POP PUSH1 0x40 DUP3 ADD MLOAD DUP2 PUSH1 0x2 ADD SSTORE PUSH1 0x60 DUP3 ADD MLOAD DUP2 PUSH1 0x3 ADD PUSH0 PUSH2 0x100 EXP DUP2 SLOAD DUP2 PUSH20 0xFFFFFFFFFFFFFFFFFFFFFFFFFFFFFFFFFFFFFFFF MUL NOT AND SWAP1 DUP4 PUSH20 0xFFFFFFFFFFFFFFFFFFFFFFFFFFFFFFFFFFFFFFFF AND MUL OR SWAP1 SSTORE POP PUSH1 0x80 DUP3 ADD MLOAD DUP2 PUSH1 0x3 ADD PUSH1 0x14 PUSH2 0x100 EXP DUP2 SLOAD DUP2 PUSH1 0xFF MUL NOT AND SWAP1 DUP4 ISZERO ISZERO MUL OR SWAP1 SSTORE POP PUSH1 0xA0 DUP3 ADD MLOAD DUP2 PUSH1 0x3 ADD PUSH1 0x15 PUSH2 0x100 EXP DUP2 SLOAD DUP2 PUSH1 0xFF MUL NOT AND SWAP1 DUP4 ISZERO ISZERO MUL OR SWAP1 SSTORE POP SWAP1 POP POP CALLER PUSH20 0xFFFFFFFFFFFFFFFFFFFFFFFFFFFFFFFFFFFFFFFF AND DUP3 PUSH20 0xFFFFFFFFFFFFFFFFFFFFFFFFFFFFFFFFFFFFFFFF AND DUP5 PUSH32 0x828CAC8BAAA59E7DF23F9A505EB54F60EE6475699A0F0C7E00F342D345CB5DFF DUP5 PUSH1 0x40 MLOAD PUSH2 0xB3F SWAP2 SWAP1 PUSH2 0x1183 JUMP JUMPDEST PUSH1 0x40 MLOAD DUP1 SWAP2 SUB SWAP1 LOG4 POP POP POP JUMP JUMPDEST PUSH0 DUP1 REVERT JUMPDEST PUSH0 PUSH20 0xFFFFFFFFFFFFFFFFFFFFFFFFFFFFFFFFFFFFFFFF DUP3 AND SWAP1 POP SWAP2 SWAP1 POP JUMP JUMPDEST PUSH0 PUSH2 0xB79 DUP3 PUSH2 0xB50 JUMP JUMPDEST SWAP1 POP SWAP2 SWAP1 POP JUMP JUMPDEST PUSH2 0xB89 DUP2 PUSH2 0xB6F JUMP JUMPDEST DUP2 EQ PUSH2 0xB93 JUMPI PUSH0 DUP1 REVERT JUMPDEST POP JUMP JUMPDEST PUSH0 DUP2 CALLDATALOAD SWAP1 POP PUSH2 0xBA4 DUP2 PUSH2 0xB80 JUMP JUMPDEST SWAP3 SWAP2 POP POP JUMP JUMPDEST PUSH0 PUSH1 0x20 DUP3 DUP5 SUB SLT ISZERO PUSH2 0xBBF JUMPI PUSH2 0xBBE PUSH2 0xB4C JUMP JUMPDEST JUMPDEST PUSH0 PUSH2 0xBCC DUP5 DUP3 DUP6 ADD PUSH2 0xB96 JUMP JUMPDEST SWAP2 POP POP SWAP3 SWAP2 POP POP JUMP JUMPDEST PUSH0 DUP2 MLOAD SWAP1 POP SWAP2 SWAP1 POP JUMP JUMPDEST PUSH0 DUP3 DUP3 MSTORE PUSH1 0x20 DUP3 ADD SWAP1 POP SWAP3 SWAP2 POP POP JUMP JUMPDEST DUP3 DUP2 DUP4 MCOPY PUSH0 DUP4 DUP4 ADD MSTORE POP POP POP JUMP JUMPDEST PUSH0 PUSH1 0x1F NOT PUSH1 0x1F DUP4 ADD AND SWAP1 POP SWAP2 SWAP1 POP JUMP JUMPDEST PUSH0 PUSH2 0xC17 DUP3 PUSH2 0xBD5 JUMP JUMPDEST PUSH2 0xC21 DUP2 DUP6 PUSH2 0xBDF JUMP JUMPDEST SWAP4 POP PUSH2 0xC31 DUP2 DUP6 PUSH1 0x20 DUP7 ADD PUSH2 0xBEF JUMP JUMPDEST PUSH2 0xC3A DUP2 PUSH2 0xBFD JUMP JUMPDEST DUP5 ADD SWAP2 POP POP SWAP3 SWAP2 POP POP JUMP JUMPDEST PUSH0 PUSH1 0x20 DUP3 ADD SWAP1 POP DUP2 DUP2 SUB PUSH0 DUP4 ADD MSTORE PUSH2 0xC5D DUP2 DUP5 PUSH2 0xC0D JUMP JUMPDEST SWAP1 POP SWAP3 SWAP2 POP POP JUMP JUMPDEST PUSH0 DUP2 ISZERO ISZERO SWAP1 POP SWAP2 SWAP1 POP JUMP JUMPDEST PUSH2 0xC79 DUP2 PUSH2 0xC65 JUMP JUMPDEST DUP3 MSTORE POP POP JUMP JUMPDEST PUSH0 PUSH1 0x20 DUP3 ADD SWAP1 POP PUSH2 0xC92 PUSH0 DUP4 ADD DUP5 PUSH2 0xC70 JUMP JUMPDEST SWAP3 SWAP2 POP POP JUMP JUMPDEST PUSH0 DUP2 SWAP1 POP SWAP2 SWAP1 POP JUMP JUMPDEST PUSH2 0xCAA DUP2 PUSH2 0xC98 JUMP JUMPDEST DUP2 EQ PUSH2 0xCB4 JUMPI PUSH0 DUP1 REVERT JUMPDEST POP JUMP JUMPDEST PUSH0 DUP2 CALLDATALOAD SWAP1 POP PUSH2 0xCC5 DUP2 PUSH2 0xCA1 JUMP JUMPDEST SWAP3 SWAP2 POP POP JUMP JUMPDEST PUSH0 PUSH1 0x20 DUP3 DUP5 SUB SLT ISZERO PUSH2 0xCE0 JUMPI PUSH2 0xCDF PUSH2 0xB4C JUMP JUMPDEST JUMPDEST PUSH0 PUSH2 0xCED DUP5 DUP3 DUP6 ADD PUSH2 0xCB7 JUMP JUMPDEST SWAP2 POP POP SWAP3 SWAP2 POP POP JUMP JUMPDEST PUSH2 0xCFF DUP2 PUSH2 0xC98 JUMP JUMPDEST DUP3 MSTORE POP POP JUMP JUMPDEST PUSH2 0xD0E DUP2 PUSH2 0xB6F JUMP JUMPDEST DUP3 MSTORE POP POP JUMP JUMPDEST PUSH0 PUSH1 0xC0 DUP3 ADD SWAP1 POP PUSH2 0xD27 PUSH0 DUP4 ADD DUP10 PUSH2 0xCF6 JUMP JUMPDEST PUSH2 0xD34 PUSH1 0x20 DUP4 ADD DUP9 PUSH2 0xD05 JUMP JUMPDEST PUSH2 0xD41 PUSH1 0x40 DUP4 ADD DUP8 PUSH2 0xCF6 JUMP JUMPDEST PUSH2 0xD4E PUSH1 0x60 DUP4 ADD DUP7 PUSH2 0xD05 JUMP JUMPDEST PUSH2 0xD5B PUSH1 0x80 DUP4 ADD DUP6 PUSH2 0xC70 JUMP JUMPDEST PUSH2 0xD68 PUSH1 0xA0 DUP4 ADD DUP5 PUSH2 0xC70 JUMP JUMPDEST SWAP8 SWAP7 POP POP POP POP POP POP POP JUMP JUMPDEST PUSH0 PUSH1 0x20 DUP3 ADD SWAP1 POP PUSH2 0xD86 PUSH0 DUP4 ADD DUP5 PUSH2 0xD05 JUMP JUMPDEST SWAP3 SWAP2 POP POP JUMP JUMPDEST PUSH0 DUP1 PUSH0 PUSH1 0x60 DUP5 DUP7 SUB SLT ISZERO PUSH2 0xDA3 JUMPI PUSH2 0xDA2 PUSH2 0xB4C JUMP JUMPDEST JUMPDEST PUSH0 PUSH2 0xDB0 DUP7 DUP3 DUP8 ADD PUSH2 0xCB7 JUMP JUMPDEST SWAP4 POP POP PUSH1 0x20 PUSH2 0xDC1 DUP7 DUP3 DUP8 ADD PUSH2 0xB96 JUMP JUMPDEST SWAP3 POP POP PUSH1 0x40 PUSH2 0xDD2 DUP7 DUP3 DUP8 ADD PUSH2 0xCB7 JUMP JUMPDEST SWAP2 POP POP SWAP3 POP SWAP3 POP SWAP3 JUMP JUMPDEST PUSH32 0x4F6E6C792047534D412043492063616E20706572666F726D2074686973206163 PUSH0 DUP3 ADD MSTORE PUSH32 0x74696F6E00000000000000000000000000000000000000000000000000000000 PUSH1 0x20 DUP3 ADD MSTORE POP JUMP JUMPDEST PUSH0 PUSH2 0xE36 PUSH1 0x24 DUP4 PUSH2 0xBDF JUMP JUMPDEST SWAP2 POP PUSH2 0xE41 DUP3 PUSH2 0xDDC JUMP JUMPDEST PUSH1 0x40 DUP3 ADD SWAP1 POP SWAP2 SWAP1 POP JUMP JUMPDEST PUSH0 PUSH1 0x20 DUP3 ADD SWAP1 POP DUP2 DUP2 SUB PUSH0 DUP4 ADD MSTORE PUSH2 0xE63 DUP2 PUSH2 0xE2A JUMP JUMPDEST SWAP1 POP SWAP2 SWAP1 POP JUMP JUMPDEST PUSH32 0x496E76616C696420616464726573730000000000000000000000000000000000 PUSH0 DUP3 ADD MSTORE POP JUMP JUMPDEST PUSH0 PUSH2 0xE9E PUSH1 0xF DUP4 PUSH2 0xBDF JUMP JUMPDEST SWAP2 POP PUSH2 0xEA9 DUP3 PUSH2 0xE6A JUMP JUMPDEST PUSH1 0x20 DUP3 ADD SWAP1 POP SWAP2 SWAP1 POP JUMP JUMPDEST PUSH0 PUSH1 0x20 DUP3 ADD SWAP1 POP DUP2 DUP2 SUB PUSH0 DUP4 ADD MSTORE PUSH2 0xECB DUP2 PUSH2 0xE92 JUMP JUMPDEST SWAP1 POP SWAP2 SWAP1 POP JUMP JUMPDEST PUSH32 0x4E487B7100000000000000000000000000000000000000000000000000000000 PUSH0 MSTORE PUSH1 0x22 PUSH1 0x4 MSTORE PUSH1 0x24 PUSH0 REVERT JUMPDEST PUSH0 PUSH1 0x2 DUP3 DIV SWAP1 POP PUSH1 0x1 DUP3 AND DUP1 PUSH2 0xF16 JUMPI PUSH1 0x7F DUP3 AND SWAP2 POP JUMPDEST PUSH1 0x20 DUP3 LT DUP2 SUB PUSH2 0xF29 JUMPI PUSH2 0xF28 PUSH2 0xED2 JUMP JUMPDEST JUMPDEST POP SWAP2 SWAP1 POP JUMP JUMPDEST PUSH32 0x436572746966696361746520646F6573206E6F74206578697374000000000000 PUSH0 DUP3 ADD MSTORE POP JUMP JUMPDEST PUSH0 PUSH2 0xF63 PUSH1 0x1A DUP4 PUSH2 0xBDF JUMP JUMPDEST SWAP2 POP PUSH2 0xF6E DUP3 PUSH2 0xF2F JUMP JUMPDEST PUSH1 0x20 DUP3 ADD SWAP1 POP SWAP2 SWAP1 POP JUMP JUMPDEST PUSH0 PUSH1 0x20 DUP3 ADD SWAP1 POP DUP2 DUP2 SUB PUSH0 DUP4 ADD MSTORE PUSH2 0xF90 DUP2 PUSH2 0xF57 JUMP JUMPDEST SWAP1 POP SWAP2 SWAP1 POP JUMP JUMPDEST PUSH32 0x4F6E6C7920746865206973737565722063616E207265766F6B65207468697320 PUSH0 DUP3 ADD MSTORE PUSH32 0x6365727469666963617465000000000000000000000000000000000000000000 PUSH1 0x20 DUP3 ADD MSTORE POP JUMP JUMPDEST PUSH0 PUSH2 0xFF1 PUSH1 0x2B DUP4 PUSH2 0xBDF JUMP JUMPDEST SWAP2 POP PUSH2 0xFFC DUP3 PUSH2 0xF97 JUMP JUMPDEST PUSH1 0x40 DUP3 ADD SWAP1 POP SWAP2 SWAP1 POP JUMP JUMPDEST PUSH0 PUSH1 0x20 DUP3 ADD SWAP1 POP DUP2 DUP2 SUB PUSH0 DUP4 ADD MSTORE PUSH2 0x101E DUP2 PUSH2 0xFE5 JUMP JUMPDEST SWAP1 POP SWAP2 SWAP1 POP JUMP JUMPDEST PUSH32 0x4F6E6C7920526F6F74204341206F7220616E20696E7465726D65646961746520 PUSH0 DUP3 ADD MSTORE PUSH32 0x43412063616E20706572666F726D207468697320616374696F6E000000000000 PUSH1 0x20 DUP3 ADD MSTORE POP JUMP JUMPDEST PUSH0 PUSH2 0x107F PUSH1 0x3A DUP4 PUSH2 0xBDF JUMP JUMPDEST SWAP2 POP PUSH2 0x108A DUP3 PUSH2 0x1025 JUMP JUMPDEST PUSH1 0x40 DUP3 ADD SWAP1 POP SWAP2 SWAP1 POP JUMP JUMPDEST PUSH0 PUSH1 0x20 DUP3 ADD SWAP1 POP DUP2 DUP2 SUB PUSH0 DUP4 ADD MSTORE PUSH2 0x10AC DUP2 PUSH2 0x1073 JUMP JUMPDEST SWAP1 POP SWAP2 SWAP1 POP JUMP JUMPDEST PUSH32 0x496E76616C696420636572744964000000000000000000000000000000000000 PUSH0 DUP3 ADD MSTORE POP JUMP JUMPDEST PUSH0 PUSH2 0x10E7 PUSH1 0xE DUP4 PUSH2 0xBDF JUMP JUMPDEST SWAP2 POP PUSH2 0x10F2 DUP3 PUSH2 0x10B3 JUMP JUMPDEST PUSH1 0x20 DUP3 ADD SWAP1 POP SWAP2 SWAP1 POP JUMP JUMPDEST PUSH0 PUSH1 0x20 DUP3 ADD SWAP1 POP DUP2 DUP2 SUB PUSH0 DUP4 ADD MSTORE PUSH2 0x1114 DUP2 PUSH2 0x10DB JUMP JUMPDEST SWAP1 POP SWAP2 SWAP1 POP JUMP JUMPDEST PUSH32 0x436572746966696361746520616C726561647920657869737473000000000000 PUSH0 DUP3 ADD MSTORE POP JUMP JUMPDEST PUSH0 PUSH2 0x114F PUSH1 0x1A DUP4 PUSH2 0xBDF JUMP JUMPDEST SWAP2 POP PUSH2 0x115A DUP3 PUSH2 0x111B JUMP JUMPDEST PUSH1 0x20 DUP3 ADD SWAP1 POP SWAP2 SWAP1 POP JUMP JUMPDEST PUSH0 PUSH1 0x20 DUP3 ADD SWAP1 POP DUP2 DUP2 SUB PUSH0 DUP4 ADD MSTORE PUSH2 0x117C DUP2 PUSH2 0x1143 JUMP JUMPDEST SWAP1 POP SWAP2 SWAP1 POP JUMP JUMPDEST PUSH0 PUSH1 0x20 DUP3 ADD SWAP1 POP PUSH2 0x1196 PUSH0 DUP4 ADD DUP5 PUSH2 0xCF6 JUMP JUMPDEST SWAP3 SWAP2 POP POP JUMP INVALID LOG2 PUSH5 0x6970667358 0x22 SLT KECCAK256 SSTORE AND PUSH12 0x550086223AD085CF56E242C PUSH14 0x48FE7636A795186A25DE7B177E6F SHR 0xBA PUSH5 0x736F6C6343 STOP ADDMOD BYTE STOP CALLER "
				},
				"gasEstimates": {
					"creation": {
						"codeDepositCost": "912400",
						"executionCost": "infinite",
						"totalCost": "infinite"
					},
					"external": {
						"addIntermediateCA(address)": "28167",
						"certificates(bytes32)": "infinite",
						"intermediateCAs(address)": "2878",
						"issueCertificate(bytes32,address,bytes32)": "infinite",
						"removeIntermediateCA(address)": "28167",
						"revokeCertificate(bytes32)": "30918",
						"rootCA()": "2530",
						"rootCAName()": "infinite"
					}
				},
				"methodIdentifiers": {
					"addIntermediateCA(address)": "8dddddd6",
					"certificates(bytes32)": "742f0688",
					"intermediateCAs(address)": "585fc0d2",
					"issueCertificate(bytes32,address,bytes32)": "f4d3cbfc",
					"removeIntermediateCA(address)": "176b95d6",
					"revokeCertificate(bytes32)": "c6cbc52a",
					"rootCA()": "aed681ed",
					"rootCAName()": "3653759f"
				}
			},
			"storageLayout": {
				"storage": [
					{
						"astId": 4,
						"contract": "CertificateAuthority.sol:CertificateAuthority",
						"label": "rootCAName",
						"offset": 0,
						"slot": "0",
						"type": "t_string_storage"
					},
					{
						"astId": 6,
						"contract": "CertificateAuthority.sol:CertificateAuthority",
						"label": "rootCA",
						"offset": 0,
						"slot": "1",
						"type": "t_address"
					},
					{
						"astId": 10,
						"contract": "CertificateAuthority.sol:CertificateAuthority",
						"label": "intermediateCAs",
						"offset": 0,
						"slot": "2",
						"type": "t_mapping(t_address,t_bool)"
					},
					{
						"astId": 28,
						"contract": "CertificateAuthority.sol:CertificateAuthority",
						"label": "certificates",
						"offset": 0,
						"slot": "3",
						"type": "t_mapping(t_bytes32,t_struct(Certificate)23_storage)"
					}
				],
				"types": {
					"t_address": {
						"encoding": "inplace",
						"label": "address",
						"numberOfBytes": "20"
					},
					"t_bool": {
						"encoding": "inplace",
						"label": "bool",
						"numberOfBytes": "1"
					},
					"t_bytes32": {
						"encoding": "inplace",
						"label": "bytes32",
						"numberOfBytes": "32"
					},
					"t_mapping(t_address,t_bool)": {
						"encoding": "mapping",
						"key": "t_address",
						"label": "mapping(address => bool)",
						"numberOfBytes": "32",
						"value": "t_bool"
					},
					"t_mapping(t_bytes32,t_struct(Certificate)23_storage)": {
						"encoding": "mapping",
						"key": "t_bytes32",
						"label": "mapping(bytes32 => struct CertificateAuthority.Certificate)",
						"numberOfBytes": "32",
						"value": "t_struct(Certificate)23_storage"
					},
					"t_string_storage": {
						"encoding": "bytes",
						"label": "string",
						"numberOfBytes": "32"
					},
					"t_struct(Certificate)23_storage": {
						"encoding": "inplace",
						"label": "struct CertificateAuthority.Certificate",
						"members": [
							{
								"astId": 12,
								"contract": "CertificateAuthority.sol:CertificateAuthority",
								"label": "id",
								"offset": 0,
								"slot": "0",
								"type": "t_bytes32"
							},
							{
								"astId": 14,
								"contract": "CertificateAuthority.sol:CertificateAuthority",
								"label": "issuedTo",
								"offset": 0,
								"slot": "1",
								"type": "t_address"
							},
							{
								"astId": 16,
								"contract": "CertificateAuthority.sol:CertificateAuthority",
								"label": "certHash",
								"offset": 0,
								"slot": "2",
								"type": "t_bytes32"
							},
							{
								"astId": 18,
								"contract": "CertificateAuthority.sol:CertificateAuthority",
								"label": "issuedBy",
								"offset": 0,
								"slot": "3",
								"type": "t_address"
							},
							{
								"astId": 20,
								"contract": "CertificateAuthority.sol:CertificateAuthority",
								"label": "exists",
								"offset": 20,
								"slot": "3",
								"type": "t_bool"
							},
							{
								"astId": 22,
								"contract": "CertificateAuthority.sol:CertificateAuthority",
								"label": "revoked",
								"offset": 21,
								"slot": "3",
								"type": "t_bool"
							}
						],
						"numberOfBytes": "128"
					}
				}
			},
			"userdoc": {
				"kind": "user",
				"methods": {},
				"version": 1
			}
		}
	}
}